:03000000020FB636
:03000B000204CF1D
:0100230032AA
:10002B000204DC536F616B3A207878732078787810
:10003B0043005265666C6F773A2078787320787836
:10004B0078430054733A2020204320546F3A2020E9
:10005B0020430054656D703A002020202020202082
:10006B00202020202020202020004552524F523AA1
:10007B00200043616E7420526561642054656D707D
:10008B0000536F616B696E672074696D653A00523E
:10009B0065666C6F772054696D653A0054696D65C0
:1000AB003A7878730054723A2020204320546F3AE8
:1000BB002020204300436F6F6C696E6720646F775D
:1000CB006E2E2E2E00446F6E650052656164792092
:1000DB00746F2072656D6F766500430046004C00AF
:0600EB0048004700200060
:1000F100C000788500D8FDD00022C000C001792859
:100101007868D8FED9FADAF6D001D00022D294125A
:1001110000F1C29422A2E79283A2E69282A2E59222
:1001210081A2E4928012010E1200F1A2E39283A255
:10013100E29282A2E19281A2E0928012010E22D289
:1001410093020116C293020116C294C0027A2812C8
:1001510000FBD0027433120145743312014574322D
:100161001201457428120145740C120145740112E3
:100171000145C0027A021200FBD00222E49360061C
:10018100120140A380F62244404480020145C0E0B0
:10019100E8C4540F4430120140E8540F44301201B6
:1001A10040D0E022C0E0E8C454F0C4443012014021
:1001B100E8C4540F4430120140E8540F4430120196
:1001C10040D0E022C0E0E8C4540F44301201DBE823
:1001D100540F44301201DBD0E0223099FDC299F571
:0201E100992261
:1001E300C0E0C0D0C000C001C002E4F549F54AF543
:1001F3004BF54CF54D7A20E540A2E77904783DE6CE
:1002030033F608D9FA79057849E636D4F608D9F9E8
:10021300DAE5D002D001D000D0D0D0E022C0E0C0D7
:10022300D0C000C001C002E4F549F54AF54BF54CD6
:10023300F54D7A20E540A2E77904783DE633F608E8
:10024300D9FA79057849C0D0E6243320E70224D0CF
:1002530020E30224FDD0D033F608D9EADAD6D0025F
:10026300D001D000D0D0D0E022C0E0C0D0C000C0C8
:1002730001C0027A207905C3784DE613C0D030E778
:100283000224D030E30224FDF618D0D0D9EC79044F
:100293007840E613F618D9FADADBD002D001D000A1
:1002A300D0D0D0E022C0E0C0D0E53D2541F53DE50A
:1002B3003E3542F53EE53F3543F53FE5403544F5F0
:1002C30040D0D0D0E022C0E0C0D0C3E53D9541F599
:1002D3003DE53E9542F53EE53F9543F53FE54095C7
:1002E30044F540D0D0D0E022C0E0C0D0C3E53D9576
:1002F30041E53E9542E53F9543E54095449207D05D
:10030300D0D0E022C0E0C0D0C3E541953DE54295A1
:100313003EE543953FE54495409207D0D0D0E02297
:10032300C0E0C0D0C207C3E541953D7014E54295D6
:100333003E700EE543953F7008E54495407002D248
:1003430007D0D0D0E02212032320070302030722A1
:100353001203232007030202EB22C0E0C0F0C0D047
:10036300C000C001C002C003E53D8541F0A4F8A967
:10037300F0E53E8541F0A429F9E435F0FAE53D8541
:1003830042F0A429F9E5F03AFAE433FBE53F85416D
:10039300F0A42AFAE5F03BFBE53E8542F0A42AFAF5
:1003A300E5F03BFBE53D8543F0A42AFAE5F03BFB92
:1003B300E5408541F0A42BFBE53F8542F0A42BFBF0
:1003C300E53E8543F0A42BFBE53D8544F0A42BFBE0
:1003D3008B408A3F893E883DD003D002D001D000B4
:1003E300D0D0D0F0D0E022C0E0C0D0C000C001C067
:1003F30002C003C0047C20E4F8F9FAFBC3E53D33F3
:10040300F53DE53E33F53EE53F33F53FE54033F556
:1004130040E833F8E933F9EA33FAEB33FBC3E89501
:1004230041E99542EA9543EB95444013E89541F839
:10043300E99542F9EA9543FAEB9544FB433D01DC28
:10044300BBD004D003D002D001D000D0D0D0E02262
:1004530075AC0075AD0075B30075B40075B100756A
:10046300B200438E1043878075985253C4DF53897B
:100473000F438920758DF7D28EC28C438E08538922
:10048300F043890175C80075CDD775CC7975C9A0BE
:1004930075CBD775CA79753A00439B80D2CAD2AF60
:1004A30043B30253B4FD43B11053B2EF75F60043A7
:1004B300F69043E10122438E08E58954F04401F5A7
:1004C30089758CF0758A2CD2A9D28C22C28C758C3A
:1004D300F0758A2CD28CB29232C2CFC0D0C0E00564
:1004E3003AC3E53B953AB39290E53AB46407753A5B
:1004F300000539D206D0E0D0D032D200D201D202E8
:10050300D203D204D295C280C281C282C283C29373
:10051300209544209541C0027A321200FBD002207C
:1005230095352095FDD280D281D282D283D293C2D7
:1005330093A2959204D293C280A2959203D280C2D1
:1005430081A2959202D281C282A2959201D282C2E5
:1005530083A2959200D28322200005B2050205638F
:1005630020042B200514E5312401D4F53194604097
:1005730020E53194904059020612E5312499D4F5CF
:10058300319460400CE53194904045020612020616
:100593005174401201457400120140740412014069
:1005A300740E120140741F1201407404120140744E
:1005B3000412014074041201407404120140C0E0AB
:1005C30074061412018AD0E074001201400206512D
:1005D30074601201457400120140740012014074EA
:1005E3000112014074011201407412120140740A95
:1005F30012014074041201407400120140C0E074FF
:10060300061412018AD0E0740412014002065174E8
:100613005012014574001201407404120140740425
:1006230012014074041201407404120140741F1239
:100633000140740E1201407404120140C0E07406BC
:100643001412018AD0E07402120140020651200301
:100653007E200555E532B4990302067E2401D4F5C4
:1006630032020667E533B42022E532B4501D74002C
:10067300F532E5337400F53302068EE5332410D4E6
:10068300F533E5327400F532020667E53394094029
:1006930044E533941940030206D5E53294304035DE
:1006A300E5329471406E0206D5E5322499D4F532D1
:1006B300B400D80206CA75332075325002068E94F0
:1006C30010D4F53302068EE533B400F30206B90203
:1006D30007950207567440120145740012014074D5
:1006E30004120140740E120140741F12014074047D
:1006F3001201407404120140740412014074041284
:100703000140C0E0740A1412018AD0E0740012019F
:100713004002079574601201457400120140740091
:10072300120140740112014074011201407412124B
:100733000140740A12014074041201407400120152
:1007430040C0E0740A1412018AD0E074041201401C
:10075300020795745012014574001201407404128B
:100763000140740412014074041201407404120124
:1007730040741F120140740E1201407404120140B0
:10078300C0E0740A1412018AD0E07402120140021C
:10079300079520026A200514E5342401D4F5349426
:1007A30030401DE53494904059020844E5342499BF
:1007B300D4F53494304009E534949040450208441C
:1007C3007440120145740012014074041201407414
:1007D3000E120140741F120140740412014074048C
:1007E30012014074041201407404120140C0E07409
:1007F3000814120188D0E074001201400208830239
:1008030008837460120145740012014074001201E0
:10081300407401120140740112014074121201402C
:10082300740A12014074041201407400120140C0A2
:10083300E0740814120188D0E07404120140020825
:100843008374501201457400120140740412014074
:1008530074041201407404120140740412014074C0
:100863001F120140740E1201407404120140C0E0D3
:10087300740814120188D0E0740212014002088344
:1008830020017820054CE535B499030208C52401FD
:10089300D4F535020899E53CB4200FE535B4500A88
:1008A3007400F535E53C7400F53CE53C9419404E85
:1008B3000208B6E53594204045E5359441407E0273
:1008C300097FE53C2410D4F53CE5357400F5350289
:1008D3000899E5352499D4F535B400CE0208F375AB
:1008E3003550753C200208AD9410D4F53C0208AD98
:1008F300E53CB400F30208E202097F0209BE74403A
:1009030012014574001201407404120140740E1266
:100913000140741F12014074041201407404120157
:100923004074041201407404120140C0E0740C14BA
:10093300120188D0E074001201400209BE746012F3
:100943000145740012014074001201407401120148
:100953004074011201407412120140740A120140E2
:1009630074041201407400120140C0E0740C1412AC
:100973000188D0E074041201400209BE74501201D0
:1009830045740012014074041201407404120140C2
:1009930074041201407404120140741F1201407464
:1009A3000E1201407404120140C0E0740C141201D1
:1009B30088D0E074021201400209BE2220976CC065
:1009C300027A321200FBD0022097603097FD753017
:1009D3000122209656C0027A321200FBD0022096E2
:1009E3004AB2092220B044C0027A321200FBD0027C
:1009F30020B038200A0FD20AC0E0744D120140D053
:100A0300E030B0FD22C20AC0E07420120140D0E001
:100A130030B0FD22200A0AC0E07420120140D0E069
:100A230022C0E0744D120140D0E0220209BE309989
:100A3300FDC29922C0E074071412018AD0E0C000FD
:100A4300A83112018FD000C0E0740B1412018AD0B8
:100A5300E0C000A83312018FD000C0E0740C141260
:100A6300018AD0E0C000A83212018FD000C0E07428
:100A73000914120188D0E0C000A83412018FD000FD
:100A8300C0E0740D14120188D0E0C000A83C12012C
:100A93008FD000C0E0740E14120188D0E0C000A80B
:100AA3003512018FD00022C0E0740C1412018AD0D9
:100AB300E0C000A83812018FD000C0E07407141200
:100AC3000188D0E0C000A83612018FD00022C0E018
:100AD300740C1412018AD0E0C000A83812018FD020
:100AE30000C0E0740714120188D0E0C000A83612D9
:100AF300018FD00022C0E074011412018AD0E0C03B
:100B030083C082C0E090006412017DD0E0D082D027
:100B130083C0E0740114120188D0E0C083C082C096
:100B2300E090006412017DD0E0D082D08322C0E047
:100B3300740C1412018AD0E0C000A84B12018FD0AC
:100B430000C0E0742E120140D0E0C000A84A120198
:100B53008FD00022C4540FF922540FF822883D8904
:100B63003E753F007540001201E3220D0A0053E871
:100B7300F043E807C2EFD2EE30EFFDE5C3C4C0E0B7
:100B8300540FF9D0E054F045C2F8883D893E753FD3
:100B93000075400075417C7542C47543007544007F
:100BA30012035D7541FF75420F75430075440012D2
:100BB30003EA7541A475426A754300754400120245
:100BC300C975416475420075430075440012035DA5
:100BD300853D45853E46853F478540481201E3E50F
:100BE30030B4050122120B312253E8F043E804C26A
:100BF300EFD2EE30EFFDE5C3C4C0E0540FF9D0E00F
:100C030054F045C2F8883D893E753F007540007534
:100C1300417C7542C475430075440012035D754100
:100C2300FF75420F7543007544001203EA7541BD19
:100C330075420575430075440012035D7541527595
:100C4300420B7543077544001203EA754140754230
:100C53004275430F75440012035D754129754200C7
:100C63007543007544001203EA8545418546428574
:100C730047438548441202A81201E3854B36854C4D
:100C830037C000A84C1201C5D000C000A84B120108
:100C9300C5D0003099FDC29975992EC000A84A129B
:100CA30001C5D000C000A8491201C5D0003099FD8C
:100CB300C29975990D3099FDC29975990A30093613
:100CC30012026C75410975420075430075440012A8
:100CD300035D7541057542007543007544001203B9
:100CE300EA7541007542E27543047544001202A897
:100CF3001201E3020CF9C0E0740614120188D0E07B
:100D0300C000A84C12018FD000C000A84B12018F65
:100D1300D000C0E0742E120140D0E0C000A84A12F7
:100D2300018FD000222253E8F043E807C2EFD2EE4E
:100D330030EFFDE5C3C4C0E0540FF9D0E054F045F3
:100D4300C2F8883D893E753F0075400075417C754A
:100D530042C475430075440012035D7541FF75423B
:100D63000F7543007544001203EA7541A475426A86
:100D73007543007544001202C975416475420075DC
:100D8300430075440012035D853D45853E46853F1E
:100D93004785404853E8F043E804C2EFD2EE30EF12
:100DA300FDE5C3C4C0E0540FF9D0E054F045C2F8E8
:100DB300883D893E753F0075400075417C7542C48E
:100DC30075430075440012035D7541FF75420F754D
:100DD30043007544001203EA7541BD75420575432E
:100DE3000075440012035D75415275420B7543074C
:100DF3007544001203EA75414075424275430F750D
:100E0300440012035D754129754200754300754422
:100E1300001203EA85454185464285474385484498
:100E23001202A81201E3C000A84C1201C5D000C0F1
:100E330000A84B1201C5D0003099FDC29975992EB7
:100E4300C000A84A1201C5D000C000A8491201C5BC
:100E5300D0003099FDC29975990D3099FDC29975ED
:100E6300990A22753D00753E00753F0075400022CA
:100E7300E53695324012E537B5330375300222E586
:100E83003694504003D2082222E539B43CFA2008B4
:100E9300F7120AF8753B00C0E074011412018AD0FE
:100EA300E0C083C082C0E090007512017DD0E0D025
:100EB30082D083C0E0740114120188D0E0C083C0E3
:100EC30082C0E090007D12017DD0E0D082D083C04B
:100ED300E074081412018AD0E0C0E07421120140CA
:100EE300D0E0C0027AFA1200FBD002C0E07408140A
:100EF30012018AD0E0C0E07420120140D0E0C002A9
:100F03007AFA1200FBD002020ED285314912026C2A
:100F1300E53DB539037530032222E536953540F9B1
:100F2300E537B53C037530042285344912026CE57C
:100F33003DB53903753005227460953640DBE537DE
:100F4300B400037530002222E5397400F5392220FC
:100F53000903020F87C0E0740D14120188D0E0C0AA
:100F630083C082C0E09000EF12017DD0E0D082D038
:100F730083C083C082C0E09000E712017DD0E0D03F
:100F830082D08322C0E0740D14120188D0E0C083A4
:100F9300C082C0E09000EF12017DD0E0D082D08308
:100FA300C083C082C0E09000E512017DD0E0D08212
:100FB300D0832275817F75B10075B20075B300755A
:100FC300B40075AD0075AD0012045312014A12044A
:100FD300DC1204B9753000753100753200753300C9
:100FE3007534007535007536007537007539007531
:100FF3003A00753B00753C00C205C206C209C28CAB
:10100300C20A120AF8C0E074011412018AD0E0C0C7
:1010130083C082C0E090002E12017DD0E0D082D048
:1010230083C0E0740114120188D0E0C083C082C081
:10103300E090003D12017DD0E0D082D083E5307591
:101043003B64B4001C1204FD12055B120A3712093B
:10105300BFC0E074101412018AD0E01209E7021035
:1010630040120AF8C0E0741014120188D0E0120A8A
:10107300171209E7753900C0E074011412018AD010
:10108300E0C083C082C0E090004E12017DD0E0D06A
:1010930082D083C0E0740114120188D0E0C083C001
:1010A30082C0E090005E12017DD0E0D082D083C088
:1010B300E074041412018AD0E0C000A83312018F37
:1010C300D000C0E074051412018AD0E0C000A83239
:1010D30012018FD000120E66754900754A00754BD8
:1010E30000754C0085334912026C75410A75420044
:1010F3007543007544001203EA1201E38549332066
:101103000A16D28CC0027AFA1200FBD002C0027A0D
:10111300FA1200FBD002C28CE530B40134120AAAE1
:10112300753B001209D5120B71120BEC120E8212D1
:101133000E8C120E73120F52C0E074101412018839
:10114300D0E01209E7C0027AFA1200FBD0020211C2
:101153001B120AF8C0E0741014120188D0E0120ABE
:10116300171209E7753900C0E074011412018AD01F
:10117300E0C083C082C0E090008C12017DD0E0D03B
:1011830082D083C0E0740114120188D0E0C083C010
:1011930082C0E09000A712017DD0E0D082D083C04E
:1011A300E0740E1412018AD0E0C000A83112018F3E
:1011B300D000200A16D28CC0027AFA1200FBD002A9
:1011C300C0027AFA1200FBD002C28CE530B40241AD
:1011D300C0E0740614120188D0E0120E6685393D12
:1011E3001201E3C000A84912018FD000120E6675E8
:1011F3003B50120F0D120D29C0E074101412018818
:10120300D0E01209E7C0027AFA1200FBD002021101
:10121300CE753900120F4B120AF8C0E07401141294
:10122300018AD0E0C083C082C0E09000B012017D8B
:10123300D0E0D082D083C0E0740114120188D0E0E2
:10124300C083C082C0E090005E12017DD0E0D082F6
:10125300D083C0E0741014120188D0E0120A171270
:1012630009E7C0E074041412018AD0E0C000A83C6E
:1012730012018FD000C0E074051412018AD0E0C0BF
:1012830000A83512018FD000120E66754900754A09
:1012930000754B00754C00853C4912026C75410A80
:1012A3007542007543007544001203EA1201E38599
:1012B300493C200A16D28CC0027AFA1200FBD002F3
:1012C300C0027AFA1200FBD002C28CE530B4032EBE
:1012D300120AD1753B001209D5120B71120BEC12D5
:1012E3000F1D120F52C0E0741014120188D0E012C7
:1012F30009E7C0027AFA1200FBD0020212CE120AE8
:10130300F8753900C0E074011412018AD0E0C0837B
:10131300C082C0E090009A12017DD0E0D082D083D9
:10132300C0E0740114120188D0E0C083C082C0E021
:101333009000A712017DD0E0D082D083C0E0740E6C
:101343001412018AD0E0C000A83412018FD000C06B
:10135300E0741014120188D0E0120A171209E72072
:101363000A16D28CC0027AFA1200FBD002C0027AAB
:10137300FA1200FBD002C28CE530B40441C0E07421
:101383000614120188D0E0120E6685393D1201E37E
:10139300C000A84912018FD000120E66753B50128F
:1013A3000F2C120D29C0E0741014120188D0E01222
:1013B30009E7C0027AFA1200FBD00202137B120A79
:1013C300F8C0E074011412018AD0E0C083C082C067
:1013D300E09000C012017DD0E0D082D083C0E074E1
:1013E3000114120188D0E0C083C082C0E090005E87
:1013F30012017DD0E0D082D083C0E07410141201BA
:1014030088D0E0120A171209E7200A16D28CC0020C
:101413007AFA1200FBD002C0027AFA1200FBD00261
:10142300C28CE530B4053E753B64C0E0740714120A
:101433000188D0E0C000A83612018FD0001209D570
:10144300120B71120BEC120F3B120F52C0E074100F
:1014530014120188D0E01209E7C0027AFA1200FBE5
:10146300D002021425120AF8C0E074011412018A92
:10147300D0E0C083C082C0E09000D012017DD0E0F4
:10148300D082D083C0E0740114120188D0E0C083FD
:10149300C082C0E09000D512017DD0E0D082D0831D
:1014A300C0E0741014120188D0E0120A171209E781
:1014B300200A66B28CC0027AFA1200FBD002C00284
:1014C3007AFA1200FBD002B28CC0027AFA1200FB45
:1014D300D002C0027AFA1200FBD002B28CC0027AA8
:1014E300FA1200FBD002C0027AFA1200FBD002B259
:1014F3008CC0027AFA1200FBD002C0027AFA120000
:10150300FBD002B28CC0027AFA1200FBD002C002F6
:0C1513007AFA1200FBD002B28C02151C08
:00000001FF
