:03000000020A01F0
:0100230032AA
:10002B000204AE536F616B3A20787873207878783E
:10003B0043005265666C6F773A2078787320787836
:10004B0078430054733A7878784320546F3A787831
:10005B0078430054656D703A20002020202020202A
:10006B0020202020202020202020004552524F52BB
:10007B003A200043616E7420526561642054656DB3
:10008B0070536F616B696E672074696D653A0052CE
:10009B0065666C6F772054696D653A0054696D65C0
:1000AB003A7878730054723A7878784320546F3AE0
:1000BB007878784300436F6F6C696E6720646F7755
:0500CB006E2E2E2E0038
:1000D000C000788500D8FDD00022C000C00179287A
:1000E0007868D8FED9FADAF6D001D00022D294127C
:1000F00000D0C29422A2E79283A2E69282A2E59265
:1001000081A2E492801200ED1200D0A2E39283A2B9
:10011000E29282A2E19281A2E092801200ED22D2CC
:10012000930200F5C2930200F5C294C0027A28122D
:1001300000DAD002743312012474331201247432B1
:100140001201247428120124740C12012474011267
:100150000124C0027A021200DAD00222E49360067F
:1001600012011FA380F62244404480020124C0E013
:10017000E8C4540F443012011FE8540F44301201F8
:100180001FD0E022C0E0E8C454F0C4443012011F84
:10019000E8C4540F443012011FE8540F44301201D8
:1001A0001FD0E022C0E0E8C4540F44301201BAE886
:1001B000540F44301201BAD0E0223099FDC299F5B3
:0201C000992282
:1001C200C0E0C0D0C000C001C002E4F549F54AF564
:1001D2004BF54CF54D7A20E540A2E77904783DE6EF
:1001E20033F608D9FA79057849E636D4F608D9F90A
:1001F200DAE5D002D001D000D0D0D0E022C0E0C0F9
:10020200D0C000C001C002E4F549F54AF54BF54CF7
:10021200F54D7A20E540A2E77904783DE633F60809
:10022200D9FA79057849C0D0E6243320E70224D0F0
:1002320020E30224FDD0D033F608D9EADAD6D00280
:10024200D001D000D0D0D0E022C0E0C0D0C000C0E9
:1002520001C0027A207905C3784DE613C0D030E799
:100262000224D030E30224FDF618D0D0D9EC790470
:100272007840E613F618D9FADADBD002D001D000C2
:10028200D0D0D0E022C0E0C0D0E53D2541F53DE52B
:100292003E3542F53EE53F3543F53FE5403544F511
:1002A20040D0D0D0E022C0E0C0D0C3E53D9541F5BA
:1002B2003DE53E9542F53EE53F9543F53FE54095E8
:1002C20044F540D0D0D0E022C0E0C0D0C3E53D9597
:1002D20041E53E9542E53F9543E54095449207D07E
:1002E200D0D0E022C0E0C0D0C3E541953DE54295C3
:1002F2003EE543953FE54495409207D0D0D0E022B9
:10030200C0E0C0D0C207C3E541953D7014E54295F7
:100312003E700EE543953F7008E54495407002D269
:1003220007D0D0D0E0221203022007030202E62205
:100332001203022007030202CA22C0E0C0F0C0D0AA
:10034200C000C001C002C003E53D8541F0A4F8A988
:10035200F0E53E8541F0A429F9E435F0FAE53D8562
:1003620042F0A429F9E5F03AFAE433FBE53F85418E
:10037200F0A42AFAE5F03BFBE53E8542F0A42AFA16
:10038200E5F03BFBE53D8543F0A42AFAE5F03BFBB3
:10039200E5408541F0A42BFBE53F8542F0A42BFB11
:1003A200E53E8543F0A42BFBE53D8544F0A42BFB01
:1003B2008B408A3F893E883DD003D002D001D000D5
:1003C200D0D0D0F0D0E022C0E0C0D0C000C001C088
:1003D20002C003C0047C20E4F8F9FAFBC3E53D3314
:1003E200F53DE53E33F53EE53F33F53FE54033F578
:1003F20040E833F8E933F9EA33FAEB33FBC3E89523
:1004020041E99542EA9543EB95444013E89541F85A
:10041200E99542F9EA9543FAEB9544FB433D01DC49
:10042200BBD004D003D002D001D000D0D0D0E02283
:1004320075AC0075AD0075B30075B40075B100758B
:10044200B200438E1043878075985253C4DF53899C
:100452000F438920758DF7D28EC28C438E08538943
:10046200F043890175C80075CDD775CC7975C9A0DF
:1004720075CBD775CA79753A00439B80D2CAD2AF81
:1004820043B30253B4FD43B11053B2EF75F60043C8
:10049200F69043E10122C28CC28D758CBF758A2809
:1004A200D28C308DFD22120498DAFB22C2CFC0D04A
:1004B200C0E0053AC3E53B953AB39290E53AB4649D
:1004C20007753A000539D206D0E0D0D032D200D238
:1004D20001D202D203D204D295C280C281C282C2A8
:1004E20083C293209544209541C0027A321200DAE9
:1004F200D0022095352095FDD280D281D282D2833E
:10050200D293C293A2959204D293C280A2959203EF
:10051200D280C281A2959202D281C282A295920118
:10052200D282C283A2959200D28322200005B20514
:1005320002053520011720050AE5312401D4F531E1
:1005420002054FE5312499D4F53102054F200259B5
:10055200200530E5322401D4F532B499030205793D
:10056200E533B4200FE532B4503F7400F532E53381
:100572007400F5330205ABE5332410D4F533E532CC
:10058200020562E5322499D4F532B4001C0205A3B7
:100592007533207532500205AB9410D4F533020541
:1005A200ABE533B4006902059220031720050AE582
:1005B200342401D4F5340205C5E5342499D4F53444
:1005C2000205C5200459200530E5352401D4F5354E
:1005D200B499030205EFE53CB4200FE535B4503F72
:1005E2007400F535E53C7400F53C020621E53C2437
:1005F20010D4F53CE5350205D8E5352499D4F53516
:10060200B4001C020619753550753C20020621946F
:1006120010D4F53C020621E53CB400F302060822A0
:10062200209713C0027A321200DAD00220970730E4
:1006320097FD753001220206213099FDC29922C030
:10064200E0740714120169D0E0C000A83112016EF3
:10065200D000C0E0740B14120169D0E0C000A833CE
:1006620012016ED000C0E0740C14120169D0E0C017
:1006720000A83212016ED000C0E0740914120167A2
:10068200D0E0C000A83412016ED000C0E0740D1496
:10069200120167D0E0C000A83C12016ED000C0E099
:1006A200740E14120167D0E0C000A83512016ED09A
:1006B2000022C0E0740C14120169D0E0C000A83816
:1006C20012016ED000C0E0740714120167D0E0C0BE
:1006D20000A83612016ED00022C0E0740414120188
:1006E20069D0E0C000A83C12016ED000C0E07405E1
:1006F20014120169D0E0C000A83512016ED000C00A
:10070200E0740C14120169D0E0C000A83812016E26
:10071200D000C0E0740714120167D0E0C000A83610
:1007220012016ED00022C0E0740114120169D0E0FF
:10073200C083C082C0E090006512015CD0E0D0822C
:10074200D083C0E0740114120167D0E0C083C0827C
:10075200C0E090006512015CD0E0D082D08322C05C
:10076200E0740C14120169D0E0C000A84B12016EB3
:10077200D000C0E0742E12011FD0E0C000A84A12BF
:10078200016ED00022C4540FF922540FF822883D82
:10079200893E753F007540001201C22253E8F043C2
:1007A200E807C2EFD2EE30EFFDE5C3C4C0E0540F5C
:1007B200F9D0E054F045C2F8883D893E753F007596
:1007C200400075417C7542C47543007544001203B4
:1007D2003C7541FF75420F7543007544001203C911
:1007E2007541A475426A7543007544001202A875EA
:1007F200416475420075430075440012033C853D17
:1008020045853E46853F478540481201C212076131
:100812002253E8F043E804C2EFD2EE30EFFDE5C325
:10082200C4C0E0540FF9D0E054F045C2F8883D89C5
:100832003E753F0075400075417C7542C4754300AA
:1008420075440012033C7541FF75420F75430075F4
:1008520044001203C97541BD7542057543007544D4
:100862000012033C75415275420B754307754400F3
:100872001203C975414075424275430F7544001217
:10088200033C75412975420075430075440012030B
:10089200C9854541854642854743854844120287BA
:1008A2001201C21208AF854B36854C3722C0E07464
:1008B2000614120167D0E0C000A84C12016ED000ED
:1008C200C000A84B12016ED000C0E0742E12011FAE
:1008D200D0E0C000A84A12016ED000C0E0740F142C
:1008E200120167D0E0C000A83312016ED000C0E050
:1008F200740D14120167D0E0C000A83712016ED047
:10090200002222753D00753E00753F0075400022B1
:10091200E536953240ECE537B5330375300222E512
:1009220036B460DED20822E539B43CD62008411242
:100932000728753B00C0E0740114120169D0E0C0C1
:1009420083C082C0E090007612015CD0E0D082D0F9
:1009520083C0E0740114120167D0E0C083C082C07A
:10096200E090007E12015CD0E0D082D08302096F59
:1009720022E539D4B531061209C775300322E536AE
:10098200B5350050EBE537120905853C3D75410A46
:100992007542007543007544001203C9853D3CB59C
:1009A2003C0040CC75300422E534B539037530057E
:1009B20022E53675F03CB5F0030209C654806004A6
:1009C2007530002222C0E0740814120169D0E0C020
:1009D20000A83112016ED000C0E074081412016741
:1009E200D0E0C000A83912016ED000C0E0740F142C
:1009F200120167D0E0C000A83012016ED00022754B
:100A0200817F1204321201291204AE753000753151
:100A12000075320075330075340075350075360087
:100A2200753700753900753A00753B00753C00C298
:100A320005C206120728C0E0740114120169D0E051
:100A4200C083C082C0E090002E12015CD0E0D08250
:100A5200D083C0E0740114120167D0E0C083C08269
:100A6200C0E090003D12015CD0E0D082D083E5303E
:100A7200753B64B4000F1204CF12052D1206411209
:100A82000622020A70120728753900C0E0740114A8
:100A9200120169D0E0C083C082C0E090004E120112
:100AA2005CD0E0D082D083C0E0740114120167D020
:100AB200E0C083C082C0E090005E12015CD0E0D052
:100AC20082D083C0E0740414120169D0E0C000A88F
:100AD2003312016ED000C0E0740514120169D0E037
:100AE200C000A83212016ED00012090585333D758F
:100AF200410A7542007543007544001203C9853DE1
:100B020033E530B4011D1206B4753B0012079E1284
:100B120008131209211209291209127AFA1204A8D9
:100B2200020B03120728753900C0E0740114120188
:100B320069D0E0C083C082C0E090008C12015CD01A
:100B4200E0D082D083C0E0740114120167D0E0C00B
:100B520083C082C0E09000A712015CD0E0D082D0B6
:100B620083C0E0740E14120169D0E0C000A83112F3
:100B7200016ED000E530B40225C0E0740614120103
:100B820067D0E012090585393D1201C2C000A849AB
:100B920012016ED000753B14120973020B76120714
:100BA20028C0E0740114120169D0E0C083C082C081
:100BB200E09000B012015CD0E0D082D083C0E0743B
:100BC2000114120167D0E0C083C082C0E090005ED1
:100BD20012015CD0E0D082D083E530B40317120654
:100BE200DB753B0012079E1208131209807AFA1273
:100BF20004A8020BDB120728753900C0E074011447
:100C0200120169D0E0C083C082C0E090009A120154
:100C12005CD0E0D082D083C0E0740114120167D0AE
:100C2200E0C083C082C0E09000A712015CD0E0D097
:100C320082D083C0E0740E14120169D0E0C000A813
:100C42003412016ED000E530B40422C0E074061400
:100C5200120167D0E085393D1201C2C000A84912D5
:100C6200016ED000753B141209AA020C4812072823
:100C7200C0E0740114120169D0E0C083C082C0E0F8
:100C82009000C012015CD0E0D082D083C0E0740139
:100C920014120167D0E0C083C082C0E090005E12EF
:100CA200015CD0E0D082D083E530B40527753B6487
:100CB200C0E0740714120167D0E0C000A836120128
:100CC2006ED00012079E1208131209B37AFA1204A8
:070CD200A8020CAA020A3877
:00000001FF
