:03000000020FC22A
:03000B000204CE1E
:0100230032AA
:10002B000204DB536F616B3A207878732078787811
:10003B0043005265666C6F773A2078787320787836
:10004B0078430054733A2020204320546F3A2020E9
:10005B0020430054656D703A002020202020202082
:10006B00202020202020202020004552524F523AA1
:10007B00200043616E7420526561642054656D707D
:10008B0000536F616B696E672074696D653A00523E
:10009B0065666C6F772054696D653A0054696D65C0
:1000AB003A7878730054723A2020204320546F3AE8
:1000BB002020204300436F6F6C696E6720646F775D
:1000CB006E2E2E2E00446F6E650052656164792092
:1000DB00746F20746F75636800430046004C0048D2
:0500EB000047002000A9
:1000F000C000788500D8FDD00022C000C00179285A
:100100007868D8FED9FADAF6D001D00022D294125B
:1001100000F0C29422A2E79283A2E69282A2E59224
:1001200081A2E4928012010D1200F0A2E39283A258
:10013000E29282A2E19281A2E0928012010D22D28B
:1001400093020115C293020115C294C0027A2812CB
:1001500000FAD00274331201447433120144743231
:100160001201447428120144740C120144740112E7
:100170000144C0027A021200FAD00222E49360061F
:1001800012013FA380F62244404480020144C0E0B3
:10019000E8C4540F443012013FE8540F44301201B8
:1001A0003FD0E022C0E0E8C454F0C4443012013F24
:1001B000E8C4540F443012013FE8540F4430120198
:1001C0003FD0E022C0E0E8C4540F44301201DAE826
:1001D000540F44301201DAD0E0223099FDC299F573
:0201E000992262
:1001E200C0E0C0D0C000C001C002E4F549F54AF544
:1001F2004BF54CF54D7A20E540A2E77904783DE6CF
:1002020033F608D9FA79057849E636D4F608D9F9E9
:10021200DAE5D002D001D000D0D0D0E022C0E0C0D8
:10022200D0C000C001C002E4F549F54AF54BF54CD7
:10023200F54D7A20E540A2E77904783DE633F608E9
:10024200D9FA79057849C0D0E6243320E70224D0D0
:1002520020E30224FDD0D033F608D9EADAD6D00260
:10026200D001D000D0D0D0E022C0E0C0D0C000C0C9
:1002720001C0027A207905C3784DE613C0D030E779
:100282000224D030E30224FDF618D0D0D9EC790450
:100292007840E613F618D9FADADBD002D001D000A2
:1002A200D0D0D0E022C0E0C0D0E53D2541F53DE50B
:1002B2003E3542F53EE53F3543F53FE5403544F5F1
:1002C20040D0D0D0E022C0E0C0D0C3E53D9541F59A
:1002D2003DE53E9542F53EE53F9543F53FE54095C8
:1002E20044F540D0D0D0E022C0E0C0D0C3E53D9577
:1002F20041E53E9542E53F9543E54095449207D05E
:10030200D0D0E022C0E0C0D0C3E541953DE54295A2
:100312003EE543953FE54495409207D0D0D0E02298
:10032200C0E0C0D0C207C3E541953D7014E54295D7
:100332003E700EE543953F7008E54495407002D249
:1003420007D0D0D0E02212032220070302030622A4
:100352001203222007030202EA22C0E0C0F0C0D04A
:10036200C000C001C002C003E53D8541F0A4F8A968
:10037200F0E53E8541F0A429F9E435F0FAE53D8542
:1003820042F0A429F9E5F03AFAE433FBE53F85416E
:10039200F0A42AFAE5F03BFBE53E8542F0A42AFAF6
:1003A200E5F03BFBE53D8543F0A42AFAE5F03BFB93
:1003B200E5408541F0A42BFBE53F8542F0A42BFBF1
:1003C200E53E8543F0A42BFBE53D8544F0A42BFBE1
:1003D2008B408A3F893E883DD003D002D001D000B5
:1003E200D0D0D0F0D0E022C0E0C0D0C000C001C068
:1003F20002C003C0047C20E4F8F9FAFBC3E53D33F4
:10040200F53DE53E33F53EE53F33F53FE54033F557
:1004120040E833F8E933F9EA33FAEB33FBC3E89502
:1004220041E99542EA9543EB95444013E89541F83A
:10043200E99542F9EA9543FAEB9544FB433D01DC29
:10044200BBD004D003D002D001D000D0D0D0E02263
:1004520075AC0075AD0075B30075B40075B100756B
:10046200B200438E1043878075985253C4DF53897C
:100472000F438920758DF7D28EC28C438E08538923
:10048200F043890175C80075CDD775CC7975C9A0BF
:1004920075CBD775CA79753A00439B80D2CAD2AF61
:1004A20043B30253B4FD43B11053B2EF75F60043A8
:1004B200F69043E10122438E08E58954F04401F5A8
:1004C20089758CF0758A2CD2A9D28C22C28C758C3B
:1004D200F0758A2CD28CB29232C2CFC0D0C0E00565
:1004E2003AC3E53B953AB39290E53AB46407753A5C
:1004F200000539D206D0E0D0D032D200D201D202E9
:10050200D203D204D295C280C281C282C283C29374
:10051200209544209541C0027A321200FAD002207E
:1005220095352095FDD280D281D282D283D293C2D8
:1005320093A2959204D293C280A2959203D280C2D2
:1005420081A2959202D281C282A2959201D282C2E6
:1005520083A2959200D2832220005F200544D20517
:100562007440120144740012013F740412013F747A
:100572000E12013F741F12013F740412013F7404F2
:1005820012013F740412013F740412013FC0E0746F
:100592000F14120189D0E0740012013F2000FD0205
:1005A20005BCC205C0E0740F14120189D0E0C0E09E
:1005B200742012013FD0E02000FD20042B200514FE
:1005C200E5312401D4F53194604020E53194904026
:1005D2005902066BE5312499D4F5319460400CE55B
:1005E200319490404502066B0206AA7440120144FF
:1005F200740012013F740412013F740E12013F7421
:100602001F12013F740412013F740412013F74046B
:1006120012013F740412013FC0E0740614120189F2
:10062200D0E0740012013F0206AA74601201447401
:100632000012013F740012013F740112013F740164
:1006420012013F741212013F740A12013F74041224
:10065200013F740012013FC0E0740614120189D0F8
:10066200E0740412013F0206AA745012014474009D
:1006720012013F740412013F740412013F74041208
:10068200013F740412013F741F12013F740E1201E4
:100692003F740412013FC0E0740614120189D0E0D5
:1006A200740212013F0206AA20037520054CE532AE
:1006B2002401D4F532B499030206F0E533B42012D2
:1006C200E532B4500D7400F532E5337400F53302AF
:1006D20006D4E5339410404EE533942040030207DC
:1006E20025E5329430403F9470407A020725E53385
:1006F2002410D4F533E5320206BDE5322499D4F54F
:1007020032B400CE02071A7533207532500206D475
:100712009410D4F5330206D4E533B400F30207098A
:100722000207E50207A67440120144740012013F59
:10073200740412013F740E12013F741F12013F74C0
:100742000412013F740412013F740412013F740445
:1007520012013FC0E0740A14120189D0E074001241
:10076200013F0207E57460120144740012013F74F4
:100772000012013F740112013F740112013F741211
:1007820012013F740A12013F740412013F740012F5
:10079200013FC0E0740A14120189D0E0740412010E
:1007A2003F0207E57450120144740012013F7404C1
:1007B20012013F740412013F740412013F740412C7
:1007C200013F741F12013F740E12013F74041201A3
:1007D2003FC0E0740A14120189D0E0740212013F92
:1007E2000207E520026A200514E5342401D4F53419
:1007F2009430401DE53494904059020894E5342425
:1008020099D4F53494304009E53494904045020877
:10081200947440120144740012013F740412013FA7
:10082200740E12013F741F12013F740412013F74CF
:100832000412013F740412013F740412013FC0E02C
:10084200740814120187D0E0740012013F0208D329
:100852000208D37460120144740012013F74001242
:10086200013F740112013F740112013F741212011F
:100872003F740A12013F740412013F740012013FD7
:10088200C0E0740814120187D0E0740412013F0220
:1008920008D37450120144740012013F740412010F
:1008A2003F740412013F740412013F740412013FA9
:1008B200741F12013F740E12013F740412013FC0F3
:1008C200E0740814120187D0E0740212013F02089A
:1008D200D3200173200547E5352401D4F535B499B9
:1008E20003020914E53CB4200FE535B4500A740044
:1008F200F535E53C7400F53CE53C9410404C942001
:1009020040030209CAE5359430403F9470403502F5
:10091200098BE53C2410D4F53CE5350208E6E535C3
:100922002499D4F535B400D002093E753550753C92
:10093200200208FA9410D4F53C0208FAE53CB4000F
:10094200F302092D0209CA020A0974401201447411
:100952000012013F740412013F740E12013F741F12
:1009620012013F740412013F740412013F74041215
:10097200013F740412013FC0E0740C14120187D0CD
:10098200E0740012013F020A09746012014474000B
:1009920012013F740012013F740112013F740112EF
:1009A200013F741212013F740A12013F74041201D2
:1009B2003F740012013FC0E0740C14120187D0E0B2
:1009C200740412013F020A097450120144740012A5
:1009D200013F740412013F740412013F74041201B6
:1009E2003F740412013F741F12013F740E12013F43
:1009F200740412013FC0E0740C14120187D0E07439
:100A02000212013F020A0922209766C0027A3212BC
:100A120000FAD00220975A3097FD753001222096B5
:100A220050C0027A321200FAD002209644B2092251
:100A320020B03EC0027A321200FAD00220B0322038
:100A42000A19D20AC0E0741014120189D0E0C0E081
:100A5200744D12013FD0E030B0FD22C20AC0E074F2
:100A62001014120189D0E0C0E0742012013FD0E0DE
:100A720022020A093099FDC29922C0E074071412B9
:100A82000189D0E0C000A83112018ED000C0E0740C
:100A92000B14120189D0E0C000A83312018ED000DD
:100AA200C0E0740C14120189D0E0C000A832120117
:100AB2008ED000C0E0740914120187D0E0C000A8F3
:100AC2003412018ED000C0E0740D14120187D0E000
:100AD200C000A83C12018ED000C0E0740E141201B6
:100AE20087D0E0C000A83512018ED00022C0E07489
:100AF2000C14120189D0E0C000A83812018ED00077
:100B0200C0E0740714120187D0E0C000A8361201B9
:100B12008ED00022C0E0740C14120189D0E0C00013
:100B2200A83812018ED000C0E0740714120187D0D9
:100B3200E0C000A83612018ED00022C0E074011479
:100B4200120189D0E0C083C082C0E090006412012B
:100B52007CD0E0D082D083C0E0740114120187D02F
:100B6200E0C083C082C0E090006412017CD0E0D07B
:100B720082D08322C0E0740C14120189D0E0C0003C
:100B8200A84B12018ED000C0E0742E12013FD0E0BB
:100B9200C000A84A12018ED00022C4540FF9225478
:100BA2000FF822883D893E753F007540001201E230
:100BB200220D0A0053E8F043E807C2EFD2EE30EF0D
:100BC200FDE5C3C4C0E0540FF9D0E054F045C2F8CB
:100BD200883D893E753F0075400075417C7542C471
:100BE20075430075440012035C7541FF75420F7531
:100BF20043007544001203E97541A475426A7543C6
:100C0200007544001202C8754164754200754300C4
:100C120075440012035C853D45853E46853F478508
:100C220040481201E2E530B4050122120B7622534C
:100C3200E8F043E804C2EFD2EE30EFFDE5C3C4C0F2
:100C4200E0540FF9D0E054F045C2F8883D893E7572
:100C52003F0075400075417C7542C4754300754480
:100C62000012035C7541FF75420F75430075440025
:100C72001203E97541BD75420575430075440012C2
:100C8200035C75415275420B7543077544001203AC
:100C9200E975414075424275430F75440012035C89
:100CA2007541297542007543007544001203E985B8
:100CB20045418546428547438548441202A71201B1
:100CC200E2854B36854C37C000A84C1201C4D000D7
:100CD200C000A84B1201C4D0003099FDC299759989
:100CE2002EC000A84A1201C4D000C000A8491201B7
:100CF200C4D0003099FDC29975990D3099FDC29901
:100D020075990A30093612026B75410975420075F0
:100D1200430075440012035C75410575420075433A
:100D2200007544001203E97541007542E2754304FF
:100D32007544001202A71201E2020D3EC0E07406E1
:100D420014120187D0E0C000A84C12018ED000C05E
:100D520000A84B12018ED000C0E0742E12013FD0C9
:100D6200E0C000A84A12018ED000222253E8F043CC
:100D7200E807C2EFD2EE30EFFDE5C3C4C0E0540F86
:100D8200F9D0E054F045C2F8883D893E753F0075C0
:100D9200400075417C7542C47543007544001203DE
:100DA2005C7541FF75420F7543007544001203E9FB
:100DB2007541A475426A7543007544001202C875F4
:100DC200416475420075430075440012035C853D21
:100DD20045853E46853F4785404853E8F043E80451
:100DE200C2EFD2EE30EFFDE5C3C4C0E0540FF9D03C
:100DF200E054F045C2F8883D893E753F00754000D9
:100E020075417C7542C475430075440012035C75DC
:100E120041FF75420F7543007544001203E97541A5
:100E2200BD75420575430075440012035C7541525D
:100E320075420B7543077544001203E9754140750D
:100E4200424275430F75440012035C754129754295
:100E5200007543007544001203E985454185464209
:100E62008547438548441202A71201E2C000A84CFC
:100E72001201C4D000C000A84B1201C4D0003099A6
:100E8200FDC29975992EC000A84A1201C4D000C0B3
:100E920000A8491201C4D0003099FDC29975990D7C
:100EA2003099FDC29975990A22753D00753E00750B
:100EB2003F0075400022E5369532405BE537B53399
:100EC2000375300222E5369450404CD20822E539AF
:100ED200B43C44200841120B3D753B00C0E0740154
:100EE20014120189D0E0C083C082C0E09000751264
:100EF200017CD0E0D082D083C0E07401141201875B
:100F0200D0E0C083C082C0E090007D12017CD0E0BE
:100F1200D082D083020F162285314912026BE53D41
:100F2200B5390375300322E536953540EAE537B524
:100F32003C037530042285344912026BE53DB53914
:100F420003753005227460953640CCE537B4000352
:100F52007530002222E5397400F539222009030296
:100F62000F93C0E0740D14120187D0E0C083C082D9
:100F7200C0E09000EE12017CD0E0D082D083C0832A
:100F8200C082C0E09000E612017CD0E0D082D08323
:100F920022C0E0740D14120187D0E0C083C082C069
:100FA200E09000EE12017CD0E0D082D083C083C0FA
:100FB20082C0E09000E412017CD0E0D082D0832293
:100FC20075817F75B10075B20075B30075B4007597
:100FD200AD0075AD001204521201491204DB120475
:100FE200B875300075310075320075330075340004
:100FF200753500753600753700753900753A00751C
:101002003B00753C00C205C206C209C28CC20A126C
:101012000B3DC0E0740114120189D0E0C083C0828C
:10102200C0E090002E12017CD0E0D082D083C0E0DC
:10103200740114120187D0E0C083C082C0E0900026
:101042003D12017CD0E0D082D083E530753B64B4A0
:1010520000121204FC12055A120A7C120A0A120A1F
:101062003202104C120B3D120A32753900C0E07484
:101072000114120189D0E0C083C082C0E090004E0A
:1010820012017CD0E0D082D083C0E074011412013E
:1010920087D0E0C083C082C0E090005E12017CD0A5
:1010A200E0D082D083C0E0740414120189D0E0C081
:1010B20000A83312018ED000C0E074051412018919
:1010C200D0E0C000A83212018ED000120EAB7549DA
:1010D20000754A00754B00754C0085334912026B4E
:1010E20075410A7542007543007544001203E91206
:1010F20001E2854933200A16D28CC0027AFA120024
:10110200FAD002C0027AFA1200FAD002C28CE5309A
:10111200B4012A120AEF753B00120A20120BB61212
:101122000C31120EC7120ED0120EB8120F5E120A36
:1011320032C0027AFA1200FAD002021110120B3DEA
:10114200120A32753900C0E0740114120189D0E02C
:10115200C083C082C0E090008C12017CD0E0D082BB
:10116200D083C0E0740114120187D0E0C083C08232
:10117200C0E09000A712017CD0E0D082D083C0E012
:10118200740E14120189D0E0C000A83112018ED071
:1011920000200A16D28CC0027AFA1200FAD002C0DB
:1011A200027AFA1200FAD002C28CE530B40237C0D9
:1011B200E0740614120187D0E0120EAB85393D129D
:1011C20001E2C000A84912018ED000120EAB753B9D
:1011D20050120F1A120D6E120A32C0027AFA12005F
:1011E200FAD0020211AC753900120F57120B3DC032
:1011F200E0740114120189D0E0C083C082C0E09083
:1012020000B012017CD0E0D082D083C0E07401141F
:10121200120187D0E0C083C082C0E090005E12015C
:101222007CD0E0D082D083120A32C0E0740414125F
:101232000189D0E0C000A83C12018ED000C0E07449
:101242000514120189D0E0C000A83512018ED00029
:10125200120EAB754900754A00754B00754C00853E
:101262003C4912026B75410A754200754300754490
:10127200001203E91201E285493C200A16D28CC011
:10128200027AFA1200FAD002C0027AFA1200FAD0F6
:1012920002C28CE530B40324120B16753B00120A0D
:1012A20020120BB6120C31120F29120F5E120A32E3
:1012B200C0027AFA1200FAD002021295120B3D75A0
:1012C2003900C0E0740114120189D0E0C083C082E9
:1012D200C0E090009A12017CD0E0D082D083C0E0BE
:1012E200740114120187D0E0C083C082C0E0900074
:1012F200A712017CD0E0D082D083C0E0740E141219
:101302000189D0E0C000A83412018ED000120A3246
:10131200200A16D28CC0027AFA1200FAD002C00257
:101322007AFA1200FAD002C28CE530B40437C0E077
:10133200740614120187D0E0120EAB85393D1201FA
:10134200E2C000A84912018ED000120EAB753B50CC
:10135200120F38120D6E120A32C0027AFA1200FA15
:10136200D00202132B120B3DC0E07401141201894A
:10137200D0E0C083C082C0E09000C012017CD0E007
:10138200D082D083C0E0740114120187D0E0C08300
:10139200C082C0E090005E12017CD0E0D082D08397
:1013A200120A32200A16D28CC0027AFA1200FAD03D
:1013B20002C0027AFA1200FAD002C28CE530B405F9
:1013C20034753B64C0E0740714120187D0E0C0009A
:1013D200A83612018ED000120A20120BB6120C315E
:1013E200120F47120F5E120A32C0027AFA1200FA84
:1013F200D0020213BE120B3DC0E074011412018927
:10140200D0E0C083C082C0E09000D012017CD0E066
:10141200D082D083C0E0740114120187D0E0C0836F
:10142200C082C0E09000D512017CD0E0D082D0838F
:10143200120A32200A66B28CC0027AFA1200FAD07C
:1014420002C0027AFA1200FAD002B28CC0027AFA10
:101452001200FAD002C0027AFA1200FAD002B28C5A
:10146200C0027AFA1200FAD002C0027AFA1200FA24
:10147200D002B28CC0027AFA1200FAD002C0027A0A
:10148200FA1200FAD002B28CC0027AFA1200FAD032
:0F14920002C0027AFA1200FAD002B28C02149E43
:00000001FF
