:030000000209DE14
:0100230032AA
:10002B000204B2536F616B3A20787873207878783A
:10003B0043005265666C6F773A2078787320787836
:10004B0078430054733A7878784320546F3A787831
:10005B0078430054656D703A2078787843002020FF
:10006B002020202020202020202020202020004580
:10007B0052524F523A200043616E742052656164B4
:10008B002054656D70536F616B696E672074696D79
:10009B00653A005265666C6F772054696D653A005E
:1000AB0054696D653A7878730054723A787878436E
:1000BB0020546F3A7878784300436F6F6C696E67A2
:0900CB0020646F776E2E2E2E00CA
:1000D400C000788500D8FDD00022C000C001792876
:1000E4007868D8FED9FADAF6D001D00022D2941278
:1000F40000D4C29422A2E79283A2E69282A2E5925D
:1001040081A2E492801200F11200D4A2E39283A2AD
:10011400E29282A2E19281A2E092801200F122D2C4
:10012400930200F9C2930200F9C294C0027A281221
:1001340000DED002743312012874331201287432A1
:100144001201287428120128740C12012874011257
:100154000128C0027A021200DED00222E493600673
:10016400120123A380F62244404480020128C0E007
:10017400E8C4540F4430120123E8540F44301201F0
:1001840023D0E022C0E0E8C454F0C4443012012378
:10019400E8C4540F4430120123E8540F44301201D0
:1001A40023D0E022C0E0E8C4540F44301201BEE87A
:1001B400540F44301201BED0E0223099FDC299F5AB
:0201C40099227E
:1001C600C0E0C0D0C000C001C002E4F549F54AF560
:1001D6004BF54CF54D7A20E540A2E77904783DE6EB
:1001E60033F608D9FA79057849E636D4F608D9F906
:1001F600DAE5D002D001D000D0D0D0E022C0E0C0F5
:10020600D0C000C001C002E4F549F54AF54BF54CF3
:10021600F54D7A20E540A2E77904783DE633F60805
:10022600D9FA79057849C0D0E6243320E70224D0EC
:1002360020E30224FDD0D033F608D9EADAD6D0027C
:10024600D001D000D0D0D0E022C0E0C0D0C000C0E5
:1002560001C0027A207905C3784DE613C0D030E795
:100266000224D030E30224FDF618D0D0D9EC79046C
:100276007840E613F618D9FADADBD002D001D000BE
:10028600D0D0D0E022C0E0C0D0E53D2541F53DE527
:100296003E3542F53EE53F3543F53FE5403544F50D
:1002A60040D0D0D0E022C0E0C0D0C3E53D9541F5B6
:1002B6003DE53E9542F53EE53F9543F53FE54095E4
:1002C60044F540D0D0D0E022C0E0C0D0C3E53D9593
:1002D60041E53E9542E53F9543E54095449207D07A
:1002E600D0D0E022C0E0C0D0C3E541953DE54295BF
:1002F6003EE543953FE54495409207D0D0D0E022B5
:10030600C0E0C0D0C207C3E541953D7014E54295F3
:100316003E700EE543953F7008E54495407002D265
:1003260007D0D0D0E0221203062007030202EA22F9
:100336001203062007030202CE22C0E0C0F0C0D09E
:10034600C000C001C002C003E53D8541F0A4F8A984
:10035600F0E53E8541F0A429F9E435F0FAE53D855E
:1003660042F0A429F9E5F03AFAE433FBE53F85418A
:10037600F0A42AFAE5F03BFBE53E8542F0A42AFA12
:10038600E5F03BFBE53D8543F0A42AFAE5F03BFBAF
:10039600E5408541F0A42BFBE53F8542F0A42BFB0D
:1003A600E53E8543F0A42BFBE53D8544F0A42BFBFD
:1003B6008B408A3F893E883DD003D002D001D000D1
:1003C600D0D0D0F0D0E022C0E0C0D0C000C001C084
:1003D60002C003C0047C20E4F8F9FAFBC3E53D3310
:1003E600F53DE53E33F53EE53F33F53FE54033F574
:1003F60040E833F8E933F9EA33FAEB33FBC3E8951F
:1004060041E99542EA9543EB95444013E89541F856
:10041600E99542F9EA9543FAEB9544FB433D01DC45
:10042600BBD004D003D002D001D000D0D0D0E0227F
:1004360075AC0075AD0075B30075B40075B1007587
:10044600B200438E1043878075985253C4DF538998
:100456000F438920758DF7D28EC28C438E0853893F
:10046600F043890175C80075CDD775CC7975C9A0DB
:1004760075CBD775CA79753A00439B80D2CAD2AF7D
:1004860043B30253B4FD43B11053B2EF75F60043C4
:10049600F69043E10122C28CC28D758CBF758A2805
:1004A600D28C308DFD2212049CDAFB22C2CFC0D042
:1004B600C0E0053AC3E53B953AB39290E53AB46499
:1004C60007753A000539D206D0E0D0D032D200D234
:1004D60001D202D203D204D295C280C281C282C2A4
:1004E60083C293209544209541C0027A321200DEE1
:1004F600D0022095352095FDD280D281D282D2833A
:10050600D293C293A2959204D293C280A2959203EB
:10051600D280C281A2959202D281C282A295920114
:10052600D282C283A2959200D28322200005B20510
:1005360002053920011720050AE5312401D4F531D9
:10054600020553E5312499D4F531020553200259A9
:10055600200530E5322401D4F532B4990302057D35
:10056600E533B4200FE532B4503F7400F532E5337D
:100576007400F5330205AFE5332410D4F533E532C4
:10058600020566E5322499D4F532B4001C0205A7AB
:100596007533207532500205AF9410D4F533020539
:1005A600AFE533B4006902059620031720050AE576
:1005B600342401D4F5340205C9E5342499D4F5343C
:1005C6000205C9200459200530E5352401D4F53546
:1005D600B499030205F3E53CB4200FE535B4503F6A
:1005E6007400F535E53C7400F53C020625E53C242F
:1005F60010D4F53CE5350205DCE5352499D4F5350E
:10060600B4001C02061D753550753C200206259463
:1006160010D4F53C020625E53CB400F302060C2294
:10062600209713C0027A321200DED00220970730DC
:1006360097FD753001220206253099FDC29922C028
:10064600E074071412016DD0E0C000A831120172E7
:10065600D000C0E0740B1412016DD0E0C000A833C6
:10066600120172D000C0E0740C1412016DD0E0C00B
:1006760000A832120172D000C0E074091412016B96
:10068600D0E0C000A834120172D000C0E0740D148E
:1006960012016BD0E0C000A83C120172D000C0E08D
:1006A600740E1412016BD0E0C000A835120172D08E
:1006B6000022C0E074041412016DD0E0C000A8331B
:1006C600120172D000C0E074051412016DD0E0C0B2
:1006D60000A832120172D000C0E0740C1412016D31
:1006E600D0E0C000A838120172D000C0E074071430
:1006F60012016BD0E0C000A836120172D00022C0F1
:10070600E074041412016DD0E0C000A83C1201721E
:10071600D000C0E074051412016DD0E0C000A83509
:10072600120172D000C0E0740C1412016DD0E0C04A
:1007360000A838120172D000C0E074071412016BD1
:10074600D0E0C000A836120172D00022C0E07401C9
:100756001412016DD0E0C083C082C0E0900069121F
:100766000160D0E0D082D083C0E074011412016B26
:10077600D0E0C083C082C0E0900069120160D0E082
:10078600D082D08322C0E0740C1412016DD0E0C078
:1007960000A84B120172D000C0E0742E120123D0C3
:1007A600E0C000A84A120172D00022C4540FF922F8
:1007B600540FF822883D893E753F007540001201AE
:1007C600C62253E8F043E807C2EFD2EE30EFFDE56C
:1007D600C3C4C0E0540FF9D0E054F045C2F8883DD8
:1007E600893E753F0075400075417C7542C475436E
:1007F600007544001203407541FF75420F754300B2
:100806007544001203CD7541A475426A754300759F
:1008160044001202AC75416475420075430075448C
:1008260000120340853D45853E46853F4785404845
:100836001201C612078B2253E8F043E804C2EFD236
:10084600EE30EFFDE5C3C4C0E0540FF9D0E054F03C
:1008560045C2F8883D893E753F0075400075417C6C
:100866007542C47543007544001203407541FF7517
:10087600420F7543007544001203CD7541BD7542A4
:100886000575430075440012034075415275420BCD
:100896007543077544001203CD7541407542427594
:1008A600430F754400120340754129754200754394
:1008B600007544001203CD85454185464285474370
:1008C60085484412028B1201C61208D9854B36851B
:1008D6004C3722C0E074061412016BD0E0C000A8A9
:1008E6004C120172D000C000A84B120172D000C099
:1008F600E0742E120123D0E0C000A84A120172D083
:10090600002222753D00753E00753F0075400022AD
:10091600E536B5320040EBE53712090985333D75FA
:10092600410A7542007543007544001203CD853DAA
:1009360033B5330040CC75300222E536B460C3D2FD
:100946000822E539B43CBB2008B8120752753B00B3
:10095600C0E074011412016DD0E0C083C082C0E013
:1009660090007A120160D0E0D082D083C0E074019A
:100976001412016BD0E0C083C082C0E090008212E6
:100986000160D0E0D082D08302098E22E531B539EC
:100996000375300322E536B535F1E53712090985C9
:1009A6003C3D75410A7542007543007544001203CB
:1009B600CD853D3CB53CD475300422E534B53903CC
:1009C60075300522E53675F03CB5F0030209DD54B5
:1009D600806004753000222275817F120436120170
:1009E6002D1204B275300075310075320075330072
:1009F6007534007535007536007537007539007524
:100A06003A00753B00753C00C205C206120752C08B
:100A1600E074011412016DD0E0C083C082C0E09082
:100A2600002E120160D0E0D082D083C0E0740114A1
:100A360012016BD0E0C083C082C0E090003D12017D
:100A460060D0E0D082D083E530753B64B4000F12ED
:100A560004D3120531120645120626020A4D120764
:100A660052753900C0E074011412016DD0E0C083E4
:100A7600C082C0E090004E120160D0E0D082D083E8
:100A8600C0E074011412016BD0E0C083C082C0E0E4
:100A960090005E120160D0E0D082D083E530B401D0
:100AA6001D1206B8753B001207C812083D12094010
:100AB6001209481209167AFA1204AC020AA212079F
:100AC60052753900C0E074011412016DD0E0C08384
:100AD600C082C0E0900090120160D0E0D082D08346
:100AE600C0E074011412016BD0E0C083C082C0E084
:100AF6009000AB120160D0E0D082D083C0E0740ECB
:100B06001412016DD0E0C000A831120172D000E5C8
:100B160030B40225C0E074061412016BD0E012094D
:100B26000985393D1201C6C000A849120172D000DC
:100B3600753B14120992020B15120752C0E074019C
:100B46001412016DD0E0C083C082C0E09000B412E0
:100B56000160D0E0D082D083C0E074011412016B32
:100B6600D0E0C083C082C0E090005E120160D0E099
:100B7600D082D083E530B40317120705753B001207
:100B860007C812083D12099B7AFA1204AC020B7AC6
:100B9600120752753900C0E074011412016DD0E0DD
:100BA600C083C082C0E090009E120160D0E0D08277
:100BB600D083C0E074011412016BD0E0C083C08200
:100BC600C0E09000AB120160D0E0D082D083C0E0DC
:100BD600740E1412016DD0E0C000A831120172D05B
:100BE60000E530B40422C0E074061412016BD0E0B4
:100BF60085393D1201C6C000A849120172D00075A0
:100C06003B141209C1020BE7120752C0E07401142B
:100C160012016DD0E0C083C082C0E09000C4120112
:100C260060D0E0D082D083C0E074011412016BD092
:100C3600E0C083C082C0E090005E120160D0E0D0C8
:100C460082D083E530B40527753B64C0E074071491
:100C560012016BD0E0C000A836120172D000120754
:100C6600C812083D1209CA7AFA1204AC020C4902EB
:020C76000A155D
:00000001FF
