:03000000020FC428
:03000B000204CA22
:0100230032AA
:10002B000204D7536F616B3A207878732078787815
:10003B0043005265666C6F773A2078787320787836
:10004B0078430054733A2020204320546F3A2020E9
:10005B0020430054656D703A002020202020202082
:10006B00202020202020202020004552524F523AA1
:10007B00200043616E7420526561642054656D707D
:10008B0000536F616B696E672074696D653A00523E
:10009B0065666C6F772054696D653A0054696D65C0
:1000AB003A2020730054723A2020204320546F3A98
:1000BB002020204300436F6F6C696E6720646F775D
:1000CB006E2E2E2E00446F6E6500506C73205265A1
:1000DB006D6F766500430046004C004800470020DA
:0100EB000014
:1000EC00C000788500D8FDD00022C000C00179285E
:1000FC007868D8FED9FADAF6D001D00022D2941260
:10010C0000ECC29422A2E79283A2E69282A2E5922C
:10011C0081A2E492801201091200ECA2E39283A264
:10012C00E29282A2E19281A2E0928012010922D293
:10013C0093020111C293020111C294C0027A2812D7
:10014C0000F6D00274331201407433120140743241
:10015C001201407428120140740C120140740112F7
:10016C000140C0027A021200F6D00222E49360062B
:10017C0012013BA380F62244404480020140C0E0BF
:10018C00E8C4540F443012013BE8540F44301201C0
:10019C003BD0E022C0E0E8C454F0C4443012013B30
:1001AC00E8C4540F443012013BE8540F44301201A0
:1001BC003BD0E022C0E0E8C4540F44301201D6E832
:1001CC00540F44301201D6D0E0223099FDC299F57B
:0201DC00992266
:1001DE00C0E0C0D0C000C001C002E4F549F54AF548
:1001EE004BF54CF54D7A20E540A2E77904783DE6D3
:1001FE0033F608D9FA79057849E636D4F608D9F9EE
:10020E00DAE5D002D001D000D0D0D0E022C0E0C0DC
:10021E00D0C000C001C002E4F549F54AF54BF54CDB
:10022E00F54D7A20E540A2E77904783DE633F608ED
:10023E00D9FA79057849C0D0E6243320E70224D0D4
:10024E0020E30224FDD0D033F608D9EADAD6D00264
:10025E00D001D000D0D0D0E022C0E0C0D0C000C0CD
:10026E0001C0027A207905C3784DE613C0D030E77D
:10027E000224D030E30224FDF618D0D0D9EC790454
:10028E007840E613F618D9FADADBD002D001D000A6
:10029E00D0D0D0E022C0E0C0D0E53D2541F53DE50F
:1002AE003E3542F53EE53F3543F53FE5403544F5F5
:1002BE0040D0D0D0E022C0E0C0D0C3E53D9541F59E
:1002CE003DE53E9542F53EE53F9543F53FE54095CC
:1002DE0044F540D0D0D0E022C0E0C0D0C3E53D957B
:1002EE0041E53E9542E53F9543E54095449207D062
:1002FE00D0D0E022C0E0C0D0C3E541953DE54295A7
:10030E003EE543953FE54495409207D0D0D0E0229C
:10031E00C0E0C0D0C207C3E541953D7014E54295DB
:10032E003E700EE543953F7008E54495407002D24D
:10033E0007D0D0D0E02212031E20070302030222B0
:10034E0012031E2007030202E622C0E0C0F0C0D056
:10035E00C000C001C002C003E53D8541F0A4F8A96C
:10036E00F0E53E8541F0A429F9E435F0FAE53D8546
:10037E0042F0A429F9E5F03AFAE433FBE53F854172
:10038E00F0A42AFAE5F03BFBE53E8542F0A42AFAFA
:10039E00E5F03BFBE53D8543F0A42AFAE5F03BFB97
:1003AE00E5408541F0A42BFBE53F8542F0A42BFBF5
:1003BE00E53E8543F0A42BFBE53D8544F0A42BFBE5
:1003CE008B408A3F893E883DD003D002D001D000B9
:1003DE00D0D0D0F0D0E022C0E0C0D0C000C001C06C
:1003EE0002C003C0047C20E4F8F9FAFBC3E53D33F8
:1003FE00F53DE53E33F53EE53F33F53FE54033F55C
:10040E0040E833F8E933F9EA33FAEB33FBC3E89506
:10041E0041E99542EA9543EB95444013E89541F83E
:10042E00E99542F9EA9543FAEB9544FB433D01DC2D
:10043E00BBD004D003D002D001D000D0D0D0E02267
:10044E0075AC0075AD0075B30075B40075B100756F
:10045E00B200438E1043878075985253C4DF538980
:10046E000F438920758DF7D28EC28C438E08538927
:10047E00F043890175C80075CDD775CC7975C9A0C3
:10048E0075CBD775CA79753A00439B80D2CAD2AF65
:10049E0043B30253B4FD43B11053B2EF75F60043AC
:1004AE00F69043E10122438E08E58954F04401F5AC
:1004BE0089758CF0758A2CD2A9D28C22C28C758C3F
:1004CE00F0758A2CD28CB29232C2CFC0D0C0E00569
:1004DE003AC3E53B953AB39290E53AB46407753A60
:1004EE00000539D206D0E0D0D032D200D201D202ED
:1004FE00D203D204D295C280C281C282C283C29379
:10050E00209544209541C0027A321200F6D0022086
:10051E0095352095FDD280D281D282D283D293C2DC
:10052E0093A2959204D293C280A2959203D280C2D6
:10053E0081A2959202D281C282A2959201D282C2EA
:10054E0083A2959200D28322200005B20502055E99
:10055E0020042B200514E5312401D4F5319460409C
:10056E0020E5319490405902060DE5312499D4F5D9
:10057E00319460400CE5319490404502060D020620
:10058E004C7440120140740012013B740412013B82
:10059E00740E12013B741F12013B740412013B7462
:1005AE000412013B740412013B740412013BC0E0BF
:1005BE00740614120185D0E0740012013B02064C41
:1005CE007450120140740012013B740012013B740E
:1005DE000112013B740112013B741212013B740AA9
:1005EE0012013B740412013B740012013BC0E07413
:1005FE000614120185D0E0740212013B02064C74FF
:10060E0048120140740012013B740412013B740441
:10061E0012013B740412013B740412013B741F124D
:10062E00013B740E12013B740412013BC0E07406D0
:10063E0014120185D0E0740112013B02064C200316
:10064E007E200555E532B499030206792401D4F5CE
:10065E0032020662E533B42022E532B4501D740036
:10066E00F532E5337400F533020689E5332410D4F0
:10067E00F533E5327400F532020662E53394094033
:10068E0044E533941940030206D0E53294304035E8
:10069E00E5329471406E0206D0E5322499D4F532DB
:1006AE00B400D80206C575332075325002068994FF
:1006BE0010D4F533020689E533B400F30206B40212
:1006CE0007900207517440120140740012013B74EE
:1006DE000412013B740E12013B741F12013B740491
:1006EE0012013B740412013B740412013B74041298
:1006FE00013BC0E0740A14120185D0E074001201AF
:10070E003B0207907450120140740012013B7400BA
:10071E0012013B740112013B740112013B7412125F
:10072E00013B740A12013B740412013B7400120166
:10073E003BC0E0740A14120185D0E0740212013B32
:10074E000207907448120140740012013B740412A7
:10075E00013B740412013B740412013B7404120138
:10076E003B741F12013B740E12013B740412013BC9
:10077E00C0E0740A14120185D0E0740112013B022C
:10078E00079020026A200514E5342401D4F5349430
:10079E0030401DE5349490405902083FE5342499C9
:1007AE00D4F53494304009E5349490404502083F26
:1007BE007440120140740012013B740412013B7428
:1007CE000E12013B741F12013B740412013B7404A0
:1007DE0012013B740412013B740412013BC0E0741D
:1007EE000814120183D0E0740012013B02087E024D
:1007FE00087E7450120140740012013B7400120105
:10080E003B740112013B740112013B741212013B45
:10081E00740A12013B740412013B740012013BC0B6
:10082E00E0740814120183D0E0740212013B020836
:10083E007E7448120140740012013B740412013B95
:10084E00740412013B740412013B740412013B74D4
:10085E001F12013B740E12013B740412013BC0E0E7
:10086E00740814120183D0E0740112013B02087E59
:10087E0020017820054CE535B499030208C0240107
:10088E00D4F535020894E53CB4200FE535B4500A92
:10089E007400F535E53C7400F53CE53C9419404E8A
:1008AE000208B1E53594204045E5359441407E027D
:1008BE00097AE53C2410D4F53CE5357400F5350293
:1008CE000894E5352499D4F535B400CE0208EE75BA
:1008DE003550753C200208A89410D4F53C0208A8A7
:1008EE00E53CB400F30208DD02097A0209B974404E
:1008FE00120140740012013B740412013B740E127B
:10090E00013B741F12013B740412013B740412016B
:10091E003B740412013B740412013BC0E0740C14CE
:10092E00120183D0E0740012013B0209B974501217
:10093E000140740012013B740012013B740112015C
:10094E003B740112013B741212013B740A12013BFB
:10095E00740412013B740012013BC0E0740C1412BB
:10096E000183D0E0740212013B0209B974481201EE
:10097E0040740012013B740412013B740412013BDB
:10098E00740412013B740412013B741F12013B7478
:10099E000E12013B740412013BC0E0740C141201E0
:1009AE0083D0E0740112013B0209B92220976CC07A
:1009BE00027A321200F6D0022097603097FD753021
:1009CE000122209656C0027A321200F6D0022096EC
:1009DE004AB2092220B044C0027A321200F6D00286
:1009EE0020B038200A0FD20AC0E0744D12013BD05D
:1009FE00E030B0FD22C20AC0E0742012013BD0E00C
:100A0E0030B0FD22200A0AC0E0742012013BD0E073
:100A1E0022C0E0744D12013BD0E0220209B9309998
:100A2E00FDC29922C0E0740714120185D0E0C00007
:100A3E00A83112018AD000C0E0740B14120185D0C7
:100A4E00E0C000A83312018AD000C0E0740C14126A
:100A5E000185D0E0C000A83212018AD000C0E07437
:100A6E000914120183D0E0C000A83412018AD0000C
:100A7E00C0E0740D14120183D0E0C000A83C120136
:100A8E008AD000C0E0740E14120183D0E0C000A81A
:100A9E003512018AD00022C0E0740C14120185D0E8
:100AAE00E0C000A83812018AD000C0E0740714120A
:100ABE000183D0E0C000A83612018AD00022C0E027
:100ACE00740C14120185D0E0C000A83812018AD02F
:100ADE0000C0E0740714120183D0E0C000A83612E3
:100AEE00018AD00022C0E0740114120185D0E0C04A
:100AFE0083C082C0E0900064120178D0E0D082D032
:100B0E0083C0E0740114120183D0E0C083C082C0A0
:100B1E00E0900064120178D0E0D082D08322C0E051
:100B2E00740C14120185D0E0C000A84B12018AD0BB
:100B3E0000C0E0742E12013BD0E0C000A84A1201A2
:100B4E008AD00022C4540FF922540FF822883D890E
:100B5E003E753F007540001201DE220D0A0053E87B
:100B6E00F043E807C2EFD2EE30EFFDE5C3C4C0E0BC
:100B7E00540FF9D0E054F045C2F8883D893E753FD8
:100B8E000075400075417C7542C475430075440084
:100B9E001203587541FF75420F75430075440012DC
:100BAE0003E57541A475426A75430075440012024F
:100BBE00C4754164754200754300754400120358B4
:100BCE00853D45853E46853F478540481201DEE519
:100BDE0030B4050122120B2C2253E8F043E804C274
:100BEE00EFD2EE30EFFDE5C3C4C0E0540FF9D0E014
:100BFE0054F045C2F8883D893E753F00754000753A
:100C0E00417C7542C475430075440012035875410A
:100C1E00FF75420F7543007544001203E57541BD23
:100C2E00754205754300754400120358754152759F
:100C3E00420B7543077544001203E575414075423A
:100C4E004275430F754400120358754129754200D1
:100C5E007543007544001203E5854541854642857E
:100C6E0047438548441202A31201DE854B36854C5C
:100C7E0037C000A84C1201C0D000C000A84B120112
:100C8E00C0D0003099FDC29975992EC000A84A12A5
:100C9E0001C0D000C000A8491201C0D0003099FD9B
:100CAE00C29975990D3099FDC29975990A30093618
:100CBE0012026775410975420075430075440012B2
:100CCE0003587541057542007543007544001203C3
:100CDE00E57541007542E27543047544001202A3A6
:100CEE001201DE020CF4C0E0740614120183D0E08F
:100CFE00C000A84C12018AD000C000A84B12018A75
:100D0E00D000C0E0742E12013BD0E0C000A84A1201
:100D1E00018AD000222253E8F043E807C2EFD2EE58
:100D2E0030EFFDE5C3C4C0E0540FF9D0E054F045F8
:100D3E00C2F8883D893E753F0075400075417C754F
:100D4E0042C47543007544001203587541FF754245
:100D5E000F7543007544001203E57541A475426A90
:100D6E007543007544001202C475416475420075E6
:100D7E004300754400120358853D45853E46853F28
:100D8E004785404853E8F043E804C2EFD2EE30EF17
:100D9E00FDE5C3C4C0E0540FF9D0E054F045C2F8ED
:100DAE00883D893E753F0075400075417C7542C493
:100DBE007543007544001203587541FF75420F7557
:100DCE0043007544001203E57541BD754205754338
:100DDE000075440012035875415275420B75430756
:100DEE007544001203E575414075424275430F7517
:100DFE00440012035875412975420075430075442D
:100E0E00001203E5854541854642854743854844A2
:100E1E001202A31201DEC000A84C1201C0D000C005
:100E2E0000A84B1201C0D0003099FDC29975992EC1
:100E3E00C000A84A1201C0D000C000A8491201C0CB
:100E4E00D0003099FDC29975990D3099FDC29975F2
:100E5E00990A22753D00753E00753F0075400022CF
:100E6E00E53695324025E537B5330375300222E578
:100E7E0036754900754A00754B00754C00F54912E0
:100E8E000267E53D94504003D2082222E539B43C76
:100E9E00FA2008F7120AF3753B00C0E07401141231
:100EAE000185D0E0C083C082C0E090007512017849
:100EBE00D0E0D082D083C0E0740114120183D0E060
:100ECE00C083C082C0E090007D120178D0E0D08255
:100EDE00D083C0E0740814120185D0E0C0E0742104
:100EEE0012013BD0E0C0027AFA1200F6D002C0E046
:100EFE00740814120185D0E0C0E0742012013BD0BA
:100F0E00E0C0027AFA1200F6D002020EE0853149F4
:100F1E00120267E53DB539037530032222E5369599
:100F2E003540F9E537B53C03753004228534491256
:100F3E000267E53DB539037530052274609536407C
:100F4E00DBE537B400037530002222E5397400F575
:100F5E003922200903020F95C0E0740D141201838B
:100F6E00D0E0C083C082C0E09000EA120178D0E0E9
:100F7E00D082D083C083C082C0E09000E21201789C
:100F8E00D0E0D082D08322C0E0740D14120183D041
:100F9E00E0C083C082C0E09000EA120178D0E0D0B9
:100FAE0082D083C083C082C0E09000E0120178D06E
:100FBE00E0D082D0832275817F75B10075B2007545
:100FCE00B30075B40075AD0075AD0012044E12017C
:100FDE00451204D71204B475300075310075320015
:100FEE00753300753400753500753600753700752C
:100FFE003900753A00753B00753C00C205C206C249
:10100E0009C28CC20A120AF3C0E0740114120185DF
:10101E00D0E0C083C082C0E090002E120178D0E0F4
:10102E00D082D083C0E0740114120183D0E0C0835B
:10103E00C082C0E090003D120178D0E0D082D08313
:10104E00E530753B64B4001C1204F8120556120A02
:10105E00321209BAC0E0741014120185D0E01209E0
:10106E00E202104E120AF3C0E0741014120183D083
:10107E00E0120A121209E2753900C0E0740114126E
:10108E000185D0E0C083C082C0E090004E1201788E
:10109E00D0E0D082D083C0E0740114120183D0E07E
:1010AE00C083C082C0E090005E120178D0E0D08292
:1010BE00D083C0E0740414120185D0E0C000A833C0
:1010CE0012018AD000C0E0740514120185D0E0C070
:1010DE0000A83212018AD000120E61754900754ABD
:1010EE0000754B00754C0085334912026775410A35
:1010FE007542007543007544001203E51201DE854A
:10110E004933200A16D28CC0027AFA1200F6D002A7
:10111E00C0027AFA1200F6D002C28CE530B4013465
:10112E00120AA5753B001209D0120B6C120BE712B6
:10113E000E7D120E9A120E6E120F60C0E074101415
:10114E00120183D0E01209E2C0027AFA1200F6D040
:10115E0002021129120AF3C0E0741014120183D096
:10116E00E0120A121209E2753900C0E0740114127D
:10117E000185D0E0C083C082C0E090008C1201785F
:10118E00D0E0D082D083C0E0740114120183D0E08D
:10119E00C083C082C0E09000A7120178D0E0D08258
:1011AE00D083C0E0740E14120185D0E0C000A831C7
:1011BE0012018AD000200A16D28CC0027AFA1200CE
:1011CE00F6D002C0027AFA1200F6D002C28CE530D6
:1011DE00B40241C0E0740614120183D0E0120E6115
:1011EE0085393D1201DEC000A84912018AD00012D5
:1011FE000E61753B50120F1B120D24C0E0741014BB
:10120E00120183D0E01209E2C0027AFA1200F6D07F
:10121E00020211DC753900120F59120AF3C0E07484
:10122E000114120185D0E0C083C082C0E09000B0EE
:10123E00120178D0E0D082D083C0E0740114120184
:10124E0083D0E0C083C082C0E090005E120178D0EF
:10125E00E0D082D083C0E0741014120183D0E0126B
:10126E000A121209E2C0E0740414120185D0E0C023
:10127E0000A83C12018AD000C0E07405141201854A
:10128E00D0E0C000A83512018AD000120E61754957
:10129E0000754A00754B00754C00853C491202677B
:1012AE0075410A7542007543007544001203E5123C
:1012BE0001DE85493C200A16D28CC0027AFA120051
:1012CE00F6D002C0027AFA1200F6D002C28CE530D5
:1012DE00B4032E120ACC753B001209D0120B6C12FD
:1012EE000BE7120F2B120F60C0E074101412018363
:1012FE00D0E01209E2C0027AFA1200F6D00202120F
:10130E00DC120AF3753900C0E0740114120185D0A5
:10131E00E0C083C082C0E090009A120178D0E0D085
:10132E0082D083C0E0740114120183D0E0C083C068
:10133E0082C0E09000A7120178D0E0D082D083C0A6
:10134E00E0740E14120185D0E0C000A83412018A98
:10135E00D000C0E0741014120183D0E0120A1212F1
:10136E0009E2200A16D28CC0027AFA1200F6D002D6
:10137E00C0027AFA1200F6D002C28CE530B40441F3
:10138E00C0E0740614120183D0E0120E6185393D5F
:10139E001201DEC000A84912018AD000120E61753A
:1013AE003B50120F3A120D24C0E074101412018338
:1013BE00D0E01209E2C0027AFA1200F6D00202134D
:1013CE0089120AF3C0E0740114120185D0E0C083C3
:1013DE00C082C0E09000C0120178D0E0D082D083ED
:1013EE00C0E0740114120183D0E0C083C082C0E05B
:1013FE0090005E120178D0E0D082D083C0E07410ED
:10140E0014120183D0E0120A121209E2200A16D237
:10141E008CC0027AFA1200F6D002C0027AFA1200DA
:10142E00F6D002C28CE530B4053E753B64C0E07464
:10143E000714120183D0E0C000A83612018AD00032
:10144E001209D0120B6C120BE7120F49120F60C06B
:10145E00E0741014120183D0E01209E2C0027AFA8D
:10146E001200F6D002021433120AF3C0E074011413
:10147E00120185D0E0C083C082C0E09000D012017E
:10148E0078D0E0D082D083C0E0740114120183D0F2
:10149E00E0C083C082C0E09000D5120178D0E0D0C9
:1014AE0082D083C0E0741014120183D0E0120A12AD
:1014BE001209E2200A66B28CC0027AFA1200F6D045
:1014CE0002C0027AFA1200F6D002B28CC0027AFA88
:1014DE001200F6D002C0027AFA1200F6D002B28CD6
:1014EE00C0027AFA1200F6D002C0027AFA1200F6A0
:1014FE00D002B28CC0027AFA1200F6D002C0027A82
:10150E00FA1200F6D002B28CC0027AFA1200F6D0AD
:10151E0002C0027AFA1200F6D002B28C745812018E
:10152E0040740E12013B740912013B740912013B07
:10153E00740912013B740912013B740912013B74C8
:10154E000812013B741012013BC0E0740D1412011D
:10155E0085D0E0740312013B7460120140740012D6
:10156E00013B740012013B740012013B7400120126
:10157E003B740012013B740012013B741E12013BBE
:10158E00740112013BC0E0740E14120185D0E07498
:10159E000412013B7468120140741012013B741066
:1015AE0012013B741012013B741012013B7418129D
:1015BE00013B740612013B740112013B74001201CF
:1015CE003BC0E0740D14120183D0E0740512013B90
:1015DE007470120140741E12013B740112013B74AF
:1015EE001E12013B740112013B741E12013B740169
:1015FE0012013B741E12013B740012013BC0E074D9
:10160E000E14120183D0E0740612013BC0027AFA66
:10161E001200F6D002C0027AFA1200F6D0027478E6
:10162E00120140740012013B740012013B7400124F
:10163E00013B740012013B740012013B740712014E
:10164E003B740812013B741012013BC0E0740D1480
:10165E00120185D0E0740712013BC0027AFA120023
:0F166E00F6D002C0027AFA1200F6D00202152A54
:00000001FF
