:03000000020F6587
:03000B000204CE1E
:0100230032AA
:10002B000204DB536F616B3A207878732078787811
:10003B0043005265666C6F773A2078787320787836
:10004B0078430054733A2020204320546F3A2020E9
:10005B0020430054656D703A002020202020202082
:10006B00202020202020202020004552524F523AA1
:10007B00200043616E7420526561642054656D707D
:10008B0000536F616B696E672074696D653A00523E
:10009B0065666C6F772054696D653A0054696D65C0
:1000AB003A7878730054723A2020204320546F3AE8
:1000BB002020204300436F6F6C696E6720646F775D
:1000CB006E2E2E2E00446F6E650052656164792092
:1000DB00746F20746F75636800430046004C0048D2
:0500EB000047002000A9
:1000F000C000788500D8FDD00022C000C00179285A
:100100007868D8FED9FADAF6D001D00022D294125B
:1001100000F0C29422A2E79283A2E69282A2E59224
:1001200081A2E4928012010D1200F0A2E39283A258
:10013000E29282A2E19281A2E0928012010D22D28B
:1001400093020115C293020115C294C0027A2812CB
:1001500000FAD00274331201447433120144743231
:100160001201447428120144740C120144740112E7
:100170000144C0027A021200FAD00222E49360061F
:1001800012013FA380F62244404480020144C0E0B3
:10019000E8C4540F443012013FE8540F44301201B8
:1001A0003FD0E022C0E0E8C454F0C4443012013F24
:1001B000E8C4540F443012013FE8540F4430120198
:1001C0003FD0E022C0E0E8C4540F44301201DAE826
:1001D000540F44301201DAD0E0223099FDC299F573
:0201E000992262
:1001E200C0E0C0D0C000C001C002E4F549F54AF544
:1001F2004BF54CF54D7A20E540A2E77904783DE6CF
:1002020033F608D9FA79057849E636D4F608D9F9E9
:10021200DAE5D002D001D000D0D0D0E022C0E0C0D8
:10022200D0C000C001C002E4F549F54AF54BF54CD7
:10023200F54D7A20E540A2E77904783DE633F608E9
:10024200D9FA79057849C0D0E6243320E70224D0D0
:1002520020E30224FDD0D033F608D9EADAD6D00260
:10026200D001D000D0D0D0E022C0E0C0D0C000C0C9
:1002720001C0027A207905C3784DE613C0D030E779
:100282000224D030E30224FDF618D0D0D9EC790450
:100292007840E613F618D9FADADBD002D001D000A2
:1002A200D0D0D0E022C0E0C0D0E53D2541F53DE50B
:1002B2003E3542F53EE53F3543F53FE5403544F5F1
:1002C20040D0D0D0E022C0E0C0D0C3E53D9541F59A
:1002D2003DE53E9542F53EE53F9543F53FE54095C8
:1002E20044F540D0D0D0E022C0E0C0D0C3E53D9577
:1002F20041E53E9542E53F9543E54095449207D05E
:10030200D0D0E022C0E0C0D0C3E541953DE54295A2
:100312003EE543953FE54495409207D0D0D0E02298
:10032200C0E0C0D0C207C3E541953D7014E54295D7
:100332003E700EE543953F7008E54495407002D249
:1003420007D0D0D0E02212032220070302030622A4
:100352001203222007030202EA22C0E0C0F0C0D04A
:10036200C000C001C002C003E53D8541F0A4F8A968
:10037200F0E53E8541F0A429F9E435F0FAE53D8542
:1003820042F0A429F9E5F03AFAE433FBE53F85416E
:10039200F0A42AFAE5F03BFBE53E8542F0A42AFAF6
:1003A200E5F03BFBE53D8543F0A42AFAE5F03BFB93
:1003B200E5408541F0A42BFBE53F8542F0A42BFBF1
:1003C200E53E8543F0A42BFBE53D8544F0A42BFBE1
:1003D2008B408A3F893E883DD003D002D001D000B5
:1003E200D0D0D0F0D0E022C0E0C0D0C000C001C068
:1003F20002C003C0047C20E4F8F9FAFBC3E53D33F4
:10040200F53DE53E33F53EE53F33F53FE54033F557
:1004120040E833F8E933F9EA33FAEB33FBC3E89502
:1004220041E99542EA9543EB95444013E89541F83A
:10043200E99542F9EA9543FAEB9544FB433D01DC29
:10044200BBD004D003D002D001D000D0D0D0E02263
:1004520075AC0075AD0075B30075B40075B100756B
:10046200B200438E1043878075985253C4DF53897C
:100472000F438920758DF7D28EC28C438E08538923
:10048200F043890175C80075CDD775CC7975C9A0BF
:1004920075CBD775CA79753A00439B80D2CAD2AF61
:1004A20043B30253B4FD43B11053B2EF75F60043A8
:1004B200F69043E10122438E08E58954F04401F5A8
:1004C20089758CF0758A2CD2A9D28C22C28C758C3B
:1004D200F0758A2CD28CB29232C2CFC0D0C0E00565
:1004E2003AC3E53B953AB39290E53AB46407753A5C
:1004F200000539D206D0E0D0D032D200D201D202E9
:10050200D203D204D295C280C281C282C283C29374
:10051200209544209541C0027A321200FAD002207E
:1005220095352095FDD280D281D282D283D293C2D8
:1005320093A2959204D293C280A2959203D280C2D2
:1005420081A2959202D281C282A2959201D282C2E6
:1005520083A2959200D28322200005B20502056291
:1005620020042B200514E5312401D4F53194604098
:1005720020E53194904059020611E5312499D4F5D1
:10058200319460400CE53194904045020611020618
:10059200507440120144740012013F740412013F6E
:1005A200740E12013F741F12013F740412013F7452
:1005B2000412013F740412013F740412013FC0E0AF
:1005C200740614120189D0E0740012013F02065031
:1005D2007460120144740012013F740012013F74EE
:1005E2000112013F740112013F741212013F740A99
:1005F20012013F740412013F740012013FC0E07403
:100602000614120189D0E0740412013F02065074EC
:1006120050120144740012013F740412013F740429
:1006220012013F740412013F740412013F741F123D
:10063200013F740E12013F740412013FC0E07406C0
:1006420014120189D0E0740212013F020650200305
:100652007520054CE5322401D4F532B49903020623
:1006620096E533B42012E532B4500D7400F532E54C
:10067200337400F53302067AE5339410404EE533C5
:10068200942040030206CBE5329430403F94704000
:100692007A0206CBE5332410D4F533E53202066341
:1006A200E5322499D4F532B400CE0206C075332067
:1006B20075325002067A9410D4F53302067AE53385
:1006C200B400F30206AF02078B02074C744012011A
:1006D20044740012013F740412013F740E12013F70
:1006E200741F12013F740412013F740412013F741B
:1006F2000412013F740412013FC0E0740A14120193
:1007020089D0E0740012013F02078B746012014429
:10071200740012013F740012013F740112013F7410
:100722000112013F741212013F740A12013F740454
:1007320012013F740012013FC0E0740A14120189D1
:10074200D0E0740412013F02078B7450120144740A
:100752000012013F740412013F740412013F740439
:1007620012013F740412013F741F12013F740E12F2
:10077200013F740412013FC0E0740A14120189D0CF
:10078200E0740212013F02078B20026A200514E581
:10079200342401D4F5349430401DE534949040590A
:1007A20002083AE5342499D4F53494304009E5340A
:1007B2009490404502083A744012014474001201B8
:1007C2003F740412013F740E12013F741F12013F65
:1007D200740412013F740412013F740412013F7445
:1007E2000412013FC0E0740814120187D0E07400C3
:1007F20012013F0208790208797460120144740000
:1008020012013F740012013F740112013F74011280
:10081200013F741212013F740A12013F7404120163
:100822003F740012013FC0E0740814120187D0E047
:10083200740412013F0208797450120144740012C8
:10084200013F740412013F740412013F7404120147
:100852003F740412013F741F12013F740E12013FD4
:10086200740412013FC0E0740814120187D0E074CE
:100872000212013F020879200173200547E5352461
:1008820001D4F535B499030208BAE53CB4200FE56A
:1008920035B4500A7400F535E53C7400F53CE53C8E
:1008A2009410404C94204003020970E53594304086
:1008B2003F94704035020931E53C2410D4F53CE503
:1008C2003502088CE5352499D4F535B400D00208F8
:1008D200E4753550753C200208A09410D4F53C0212
:1008E20008A0E53CB400F30208D30209700209AF84
:1008F2007440120144740012013F740412013F74E7
:100902000E12013F741F12013F740412013F74045E
:1009120012013F740412013F740412013FC0E074DB
:100922000C14120187D0E0740012013F0209AF7467
:1009320060120144740012013F740012013F7401FD
:1009420012013F740112013F741212013F740A1224
:10095200013F740412013F740012013FC0E0740CA5
:1009620014120187D0E0740412013F0209AF7450DF
:10097200120144740012013F740412013F74041204
:10098200013F740412013F740412013F741F1201EB
:100992003F740E12013F740412013FC0E0740C1444
:1009A200120187D0E0740212013F0209AF222097A0
:1009B20063C0027A321200FAD0022097573097FDB4
:1009C2007530012220964DC0027A321200FAD0020E
:1009D200209641B2092220B03BC0027A321200FABC
:1009E200D00220B02F200A16D20AC0E074101412CE
:1009F2000189D0E0C0E0744D12013FD0E022C20A6A
:100A0200C0E0741014120189D0E0C0E07420120119
:100A12003FD0E0220209AF3099FDC29922C0E074B2
:100A22000714120189D0E0C000A83112018ED00053
:100A3200C0E0740B14120189D0E0C000A833120187
:100A42008ED000C0E0740C14120189D0E0C000A85E
:100A52003212018ED000C0E0740914120187D0E076
:100A6200C000A83412018ED000C0E0740D1412012F
:100A720087D0E0C000A83C12018ED000C0E0740E06
:100A820014120187D0E0C000A83512018ED00022D6
:100A9200C0E0740C14120189D0E0C000A838120121
:100AA2008ED000C0E0740714120187D0E0C000A805
:100AB2003612018ED00022C0E0740C14120189D0CB
:100AC200E0C000A83812018ED000C0E074071412F2
:100AD2000187D0E0C000A83612018ED00022C0E00B
:100AE200740114120189D0E0C083C082C0E090007A
:100AF2006412017CD0E0D082D083C0E07401141271
:100B02000187D0E0C083C082C0E090006412017C03
:100B1200D0E0D082D08322C0E0740C14120189D0BC
:100B2200E0C000A84B12018ED000C0E0742E12016A
:100B32003FD0E0C000A84A12018ED00022C4540F58
:100B4200F922540FF822883D893E753F0075400016
:100B52001201E2220D0A0053E8F043E807C2EFD285
:100B6200EE30EFFDE5C3C4C0E0540FF9D0E054F01D
:100B720045C2F8883D893E753F0075400075417C4D
:100B82007542C475430075440012035C7541FF75DC
:100B9200420F7543007544001203E97541A4754282
:100BA2006A7543007544001202C8754164754200BB
:100BB20075430075440012035C853D45853E4685BC
:100BC2003F478540481201E2E530B4050122120B8D
:100BD200192253E8F043E804C2EFD2EE30EFFDE50C
:100BE200C3C4C0E0540FF9D0E054F045C2F8883DC8
:100BF200893E753F0075400075417C7542C475435E
:100C02000075440012035C7541FF75420F75430085
:100C12007544001203E97541BD75420575430075BF
:100C2200440012035C75415275420B7543077544CB
:100C3200001203E975414075424275430F75440045
:100C420012035C7541297542007543007544001218
:100C520003E985454185464285474385484412025A
:100C6200A71201E2854B36854C37C000A84C120111
:100C7200C4D000C000A84B1201C4D0003099FDC2FC
:100C82009975992EC000A84A1201C4D000C000A8CC
:100C9200491201C4D0003099FDC29975990D30995D
:100CA200FDC29975990A30093612026B75410975B0
:100CB200420075430075440012035C75410575429C
:100CC200007543007544001203E97541007542E264
:100CD2007543047544001202A71201E2020CE1C03E
:100CE200E0740614120187D0E0C000A84C12018EF5
:100CF200D000C000A84B12018ED000C0E0742E12AA
:100D0200013FD0E0C000A84A12018ED00022225337
:100D1200E8F043E807C2EFD2EE30EFFDE5C3C4C00E
:100D2200E0540FF9D0E054F045C2F8883D893E7591
:100D32003F0075400075417C7542C475430075449F
:100D42000012035C7541FF75420F75430075440044
:100D52001203E97541A475426A7543007544001295
:100D620002C8754164754200754300754400120360
:100D72005C853D45853E46853F4785404853E8F0C2
:100D820043E804C2EFD2EE30EFFDE5C3C4C0E05445
:100D92000FF9D0E054F045C2F8883D893E753F0016
:100DA20075400075417C7542C4754300754400125C
:100DB200035C7541FF75420F7543007544001203D1
:100DC200E97541BD75420575430075440012035C27
:100DD20075415275420B7543077544001203E9755C
:100DE200414075424275430F75440012035C7541E0
:100DF200297542007543007544001203E985454197
:100E02008546428547438548441202A71201E2C043
:100E120000A84C1201C4D000C000A84B1201C4D0DB
:100E2200003099FDC29975992EC000A84A1201C4DA
:100E3200D000C000A8491201C4D0003099FDC29967
:100E420075990D3099FDC29975990A22753D007503
:100E52003E00753F0075400022E5369532405BE565
:100E620037B5330375300222E5369450404CD20830
:100E720022E539B43C44200841120AE0753B00C027
:100E8200E0740114120189D0E0C083C082C0E090F6
:100E9200007512017CD0E0D082D083C0E0740114CE
:100EA200120187D0E0C083C082C0E090007D1201B1
:100EB2007CD0E0D082D083020EB922853149120261
:100EC2006BE53DB5390375300322E536953540EAC9
:100ED200E537B53C037530042285344912026BE5CF
:100EE2003DB53903753005227460953640CCE5373F
:100EF200B400037530002222E5397400F53922204E
:100F02000903020F36C0E0740D14120187D0E0C04D
:100F120083C082C0E09000EE12017CD0E0D082D08B
:100F220083C083C082C0E09000E612017CD0E0D092
:100F320082D08322C0E0740D14120187D0E0C083F6
:100F4200C082C0E09000EE12017CD0E0D082D0835B
:100F5200C083C082C0E09000E412017CD0E0D08265
:100F6200D0832275817F75B10075B20075B30075AB
:100F7200B40075AD0075AD0012045212014912049D
:100F8200DB1204B87530007531007532007533001C
:100F92007534007535007536007537007539007582
:100FA2003A00753B00753C00C205C206C209C28CFC
:100FB200C20A120AE0C0E0740114120189D0E0C032
:100FC20083C082C0E090002E12017CD0E0D082D09B
:100FD20083C0E0740114120187D0E0C083C082C0D4
:100FE200E090003D12017CD0E0D082D083E53075E4
:100FF2003B64B400121204FC12055A120A1F1209B1
:10100200B01209D8020FEF120AE01209D87539009E
:10101200C0E0740114120189D0E0C083C082C0E034
:1010220090004E12017CD0E0D082D083C0E07401E7
:1010320014120187D0E0C083C082C0E090005E122B
:10104200017CD0E0D082D083C0E074041412018904
:10105200D0E0C000A83312018ED000C0E0740514A5
:10106200120189D0E0C000A83212018ED000120E07
:101072004E754900754A00754B00754C0085334921
:1010820012026B75410A75420075430075440012E5
:1010920003E91201E2854933200A16D28CC0027A92
:1010A200FA1200FAD002C0027AFA1200FAD002C290
:1010B2008CE530B4012A120A92753B001209C6125D
:1010C2000B59120BD4120E6A120E73120E5B120F10
:1010D200011209D8C0027AFA1200FAD0020210B341
:1010E200120AE01209D8753900C0E0740114120125
:1010F20089D0E0C083C082C0E090008C12017CD015
:10110200E0D082D083C0E0740114120187D0E0C025
:1011120083C082C0E09000A712017CD0E0D082D0D0
:1011220083C0E0740E14120189D0E0C000A831120D
:10113200018ED000200A16D28CC0027AFA1200FA6E
:10114200D002C0027AFA1200FAD002C28CE530B4A0
:101152000237C0E0740614120187D0E0120E4E85E9
:10116200393D1201E2C000A84912018ED000120ED0
:101172004E753B50120EBD120D111209D8C0027AE3
:10118200FA1200FAD00202114F753900120EFA1249
:101192000AE0C0E0740114120189D0E0C083C08269
:1011A200C0E09000B012017CD0E0D082D083C0E0D9
:1011B200740114120187D0E0C083C082C0E09000A5
:1011C2005E12017CD0E0D082D0831209D8C0E074D4
:1011D2000414120189D0E0C000A83C12018ED00094
:1011E200C0E0740514120189D0E0C000A8351201D4
:1011F2008ED000120E4E754900754A00754B00756F
:101202004C00853C4912026B75410A7542007543D8
:10121200007544001203E91201E285493C200A16D6
:10122200D28CC0027AFA1200FAD002C0027AFA1202
:1012320000FAD002C28CE530B40324120AB9753B1D
:10124200001209C6120B59120BD4120ECC120F0146
:101252001209D8C0027AFA1200FAD0020212381227
:101262000AE0753900C0E0740114120189D0E0C0AF
:1012720083C082C0E090009A12017CD0E0D082D07C
:1012820083C0E0740114120187D0E0C083C082C021
:10129200E09000A712017CD0E0D082D083C0E0743D
:1012A2000E14120189D0E0C000A83412018ED000C1
:1012B2001209D8200A16D28CC0027AFA1200FAD089
:1012C20002C0027AFA1200FAD002C28CE530B404EB
:1012D20037C0E0740614120187D0E0120E4E853931
:1012E2003D1201E2C000A84912018ED000120E4E3A
:1012F200753B50120EDB120D111209D8C0027AFA98
:101302001200FAD0020212CE120AE0C0E0740114F6
:10131200120189D0E0C083C082C0E09000C01201F7
:101322007CD0E0D082D083C0E0740114120187D057
:10133200E0C083C082C0E090005E12017CD0E0D0A9
:1013420082D0831209D8200A16D28CC0027AFA12ED
:1013520000FAD002C0027AFA1200FAD002C28CE578
:1013620030B40534753B64C0E0740714120187D0B1
:10137200E0C000A83612018ED0001209C6120B5925
:10138200120BD4120EEA120F011209D8C0027AFA15
:101392001200FAD002021361120AE0C0E0740114D2
:1013A200120189D0E0C083C082C0E09000D0120157
:1013B2007CD0E0D082D083C0E0740114120187D0C7
:1013C200E0C083C082C0E09000D512017CD0E0D0A2
:1013D20082D0831209D8200A66B28CC0027AFA122D
:1013E20000FAD002C0027AFA1200FAD002B28CC01D
:1013F200027AFA1200FAD002C0027AFA1200FAD085
:1014020002B28CC0027AFA1200FAD002C0027AFA50
:101412001200FAD002B28CC0027AFA1200FAD0029A
:10142200C0027AFA1200FAD002B28CC0027AFA1220
:1014320000FAD002C0027AFA1200FAD002B28C028A
:02144200144153
:00000001FF
