:03000000020950A2
:0100230032AA
:10002B000204BF536F616B3A20787873207878782D
:10003B0043005265666C6F773A2078787320787836
:10004B0078430054733A7878784320546F3A787831
:10005B0078430054656D703A2078787843002020FF
:10006B002020202020202020202020202020004382
:10007B00616E7420526561642054656D7000536F1E
:10008B00616B696E672074696D650054696D653AC3
:04009B0078787300FE
:10009F005265666C6F77696E672E2E2E00436F6FF9
:1000AF006C696E672E2E2E00436F6F6C2054696D36
:1000BF00653A78787300436F6F6C646F776E204486
:1000CF006F6E6500526561647920746F204F7065A3
:0200DF006E00B1
:1000E100C000788500D8FDD00022C000C001792869
:1000F1007868D8FED9FADAF6D001D00022D294126B
:1001010000E1C29422A2E79283A2E69282A2E59242
:1001110081A2E492801200FE1200E1A2E39283A286
:10012100E29282A2E19281A2E092801200FE22D2AA
:1001310093020106C293020106C294C0027A2812F8
:1001410000EBD0027433120135743312013574326D
:100151001201357428120135740C12013574011223
:100161000135C0027A021200EBD00222E49360064C
:10017100120130A380F62244404480020135C0E0E0
:10018100E8C4540F4430120130E8540F44301201D6
:1001910030D0E022C0E0E8C454F0C4443012013051
:1001A100E8C4540F4430120130E8540F44301201B6
:1001B10030D0E022C0E0E8C4540F44301201CBE853
:1001C100540F44301201CBD0E0223099FDC299F591
:0201D100992271
:1001D300C0E0C0D0C000C001C002E4F549F54AF553
:1001E3004BF54CF54D7A20E540A2E77904783DE6DE
:1001F30033F608D9FA79057849E636D4F608D9F9F9
:10020300DAE5D002D001D000D0D0D0E022C0E0C0E7
:10021300D0C000C001C002E4F549F54AF54BF54CE6
:10022300F54D7A20E540A2E77904783DE633F608F8
:10023300D9FA79057849C0D0E6243320E70224D0DF
:1002430020E30224FDD0D033F608D9EADAD6D0026F
:10025300D001D000D0D0D0E022C0E0C0D0C000C0D8
:1002630001C0027A207905C3784DE613C0D030E788
:100273000224D030E30224FDF618D0D0D9EC79045F
:100283007840E613F618D9FADADBD002D001D000B1
:10029300D0D0D0E022C0E0C0D0E53D2541F53DE51A
:1002A3003E3542F53EE53F3543F53FE5403544F500
:1002B30040D0D0D0E022C0E0C0D0C3E53D9541F5A9
:1002C3003DE53E9542F53EE53F9543F53FE54095D7
:1002D30044F540D0D0D0E022C0E0C0D0C3E53D9586
:1002E30041E53E9542E53F9543E54095449207D06D
:1002F300D0D0E022C0E0C0D0C3E541953DE54295B2
:100303003EE543953FE54495409207D0D0D0E022A7
:10031300C0E0C0D0C207C3E541953D7014E54295E6
:100323003E700EE543953F7008E54495407002D258
:1003330007D0D0D0E0221203132007030202F722D2
:100343001203132007030202DB22C0E0C0F0C0D077
:10035300C000C001C002C003E53D8541F0A4F8A977
:10036300F0E53E8541F0A429F9E435F0FAE53D8551
:1003730042F0A429F9E5F03AFAE433FBE53F85417D
:10038300F0A42AFAE5F03BFBE53E8542F0A42AFA05
:10039300E5F03BFBE53D8543F0A42AFAE5F03BFBA2
:1003A300E5408541F0A42BFBE53F8542F0A42BFB00
:1003B300E53E8543F0A42BFBE53D8544F0A42BFBF0
:1003C3008B408A3F893E883DD003D002D001D000C4
:1003D300D0D0D0F0D0E022C0E0C0D0C000C001C077
:1003E30002C003C0047C20E4F8F9FAFBC3E53D3303
:1003F300F53DE53E33F53EE53F33F53FE54033F567
:1004030040E833F8E933F9EA33FAEB33FBC3E89511
:1004130041E99542EA9543EB95444013E89541F849
:10042300E99542F9EA9543FAEB9544FB433D01DC38
:10043300BBD004D003D002D001D000D0D0D0E02272
:1004430075AC0075AD0075B30075B40075B100757A
:10045300B200438E1043878075985253C4DF53898B
:100463000F438920758DF7D28EC28C438E08538932
:10047300F043890175C80075CDD775CC7975C9A0CE
:1004830075CBD775CA79753A00439B80D2CAD2AF70
:1004930043B30253B4FD43B11053B2EF75F60043B7
:1004A300F69043E10122C28CC28D758CBF758A28F8
:1004B300D28C308DFD221204A9DAFB22C2CFC0D028
:1004C300C0E0053AC3E53B953AB39290E53AB4648C
:1004D30007753A000539D206D0E0D0D032D200D227
:1004E30001D202D203D204D295C280C281C282C297
:1004F30083C29320953A7A321204B9209532D2807E
:10050300D281D282D283D293C293A2959204D29300
:10051300C280A2959203D280C281A2959202D28117
:10052300C282A2959201D282C283A2959200D28303
:1005330022200005B20502053C20011720050AE52B
:10054300312401D4F531020556E5312499D4F5312E
:10055300020556200259200530E5322401D4F53234
:10056300B49903020580E533B4200FE532B4503F5C
:100573007400F532E5337400F5330205B2E5332434
:1005830010D4F533E532020569E5322499D4F53206
:10059300B4001C0205AA7533207532500205B294CB
:1005A30010D4F5330205B2E533B40069020599208E
:1005B300031720050AE5342401D4F5340205CCE5FC
:1005C300342499D4F5340205CC200459200530E5B0
:1005D300352401D4F535B499030205F6E53CB4207E
:1005E3000FE535B4503F7400F535E53C7400F53C38
:1005F300020628E53C2410D4F53CE5350205DFE589
:10060300352499D4F535B4001C0206207535507590
:100613003C200206289410D4F53C020628E53CB49D
:1006230000F302060F22209713C0027A321200EB66
:10063300D0022097073097FD75300122020628303B
:1006430099FDC29922C0E074071412017AD0E0C068
:1006530000A83112017FD000C0E0740B1412017A9C
:10066300D0E0C000A83312017FD000C0E0740C14A6
:1006730012017AD0E0C000A83212017FD000C0E09E
:10068300740914120178D0E0C000A83412017FD09D
:1006930000C0E0740D14120178D0E0C000A83C1231
:1006A300017FD000C0E0740E14120178D0E0C000C6
:1006B300A83512017FD00022C0E074041412017A1D
:1006C300D0E0C000A83312017FD000C0E07405144D
:1006D30012017AD0E0C000A83212017FD000C0E03E
:1006E300740C1412017AD0E0C000A83812017FD034
:1006F30000C0E0740714120178D0E0C000A83612DD
:100703000195D00022C0E074011412017AD0E0C038
:1007130083C082C0E090006912016DD0E0D082D026
:1007230083C0E0740114120178D0E0C083C082C09A
:10073300E090006912016DD0E0D082D08322C0E046
:10074300740C1412017AD0E0C000A84B12017FD0C0
:1007530000C0E0742E120130D0E0C000A84A12019C
:100763007FD00022C4540FF922540FF822883D8908
:100773003E753F007540001201D32253E8F043E871
:1007830007C2EFD2EE30EFFDE5C3C4C0E0540FF96A
:10079300D0E054F045C2F8883D893E753F0075406E
:1007A3000075417C7542C475430075440012034DC6
:1007B3007541FF75420F7543007544001203DA75E6
:1007C30041A475426A7543007544001202B975412C
:1007D3006475420075430075440012034D853D4521
:1007E300853E46853F478540481201D31207412283
:1007F30053E8F043E804C2EFD2EE30EFFDE5C3C4A3
:10080300C0E0540FF9D0E054F045C2F8883D893E6A
:10081300753F0075400075417C7542C47543007592
:10082300440012034D7541FF75420F754300754433
:10083300001203DA7541BD75420575430075440026
:1008430012034D75415275420B75430775440012EF
:1008530003DA75414075424275430F754400120334
:100863004D7541297542007543007544001203DA42
:10087300854541854642854743854844120298127F
:1008830001D312088F854B36854C3722C0E074069E
:1008930014120178D0E0C000A84C12017FD000C030
:1008A30000A84B12017FD000C0E0742E120130D09B
:1008B300E0C000A84A12017FD0002222E536B532FB
:1008C300FAE53785333D75410A7542007543007576
:1008D30044001203DA853D33B533E075300222E577
:1008E30036B460D7D20822E539B460CF2008CC12E1
:1008F3000708753B00C0E074011412017AD0E0C010
:1009030083C082C0E090007A12016DD0E0D082D023
:1009130083020914C0E074011412017AD0E0C08389
:10092300C082C0E09000C512016DD0E0D082D083B8
:10093300C0E0740114120178D0E0C083C082C0E02B
:100943009000D312016DD0E0D082D0832275817FD5
:1009530012044312013A1204BF7530007531007559
:100963003200753300753400753500753600753700
:1009730000753900753A00753B00753C007533000E
:10098300C205C206120708C0E074011412017AD02E
:10099300E0C083C082C0E090002E12016DD0E0D091
:1009A30082D083C0E0740114120178D0E0C083C008
:1009B30082C0E090003D12016DD0E0D082D083E58B
:1009C30030753B64B4000F1204E01205341206487C
:1009D3001206290209C2120708E5397400F539C065
:1009E300E074011412017AD0E0C083C082C0E090A9
:1009F300004E12016DD0E0D082D083C0E0740114A8
:100A0300120178D0E0C083C082C0E090005E120182
:100A13006DD0E0D082D083E530B401221206BB75DD
:100A23003B0012077E1207F31208E21208EA1208CB
:100A3300BF7AFA1204B97AFA1204B9020A1A12072F
:100A430008753900C0E074011412017AD0E0C08344
:100A5300C082C0E090008912016DD0E0D082D083C3
:100A6300C0E0740114120178D0E0C083C082C0E0FA
:100A730090009612016DD0E0D082D083C0E0740E56
:100A83001412017AD0E0C000A83112017FD000C057
:100A9300E0740614120178D0E0C000A83912017F77
:100AA300D00085393D1201D3C000A84912017FD07F
:100AB30000753B14020A9202098712070875390070
:100AC300C0E074011412017AD0E0C083C082C0E098
:100AD30090009F12016DD0E0D082D083C0E07401FA
:100AE30014120178D0E0C083C082C0E09000961257
:100AF300016DD0E0D082D083C0E0740E1412017A6D
:100B0300D0E0C000A83412017FD000C0E074061406
:100B1300120178D0E0C000A83912017FD0008539D6
:100B23003D1201D3C000A84912017FD000753B6478
:100B33001208BF1208EA7AFA1204B97AFA1204B94F
:100B4300E530B40303020B0E120708753900C0E049
:100B530074011412017AD0E0C083C082C0E0900017
:100B6300AC12016DD0E0D082D083C0E074011412C6
:100B73000178D0E0C083C082C0E090009612016D7E
:100B8300D0E0D082D083C0E0740E1412017AD0E09A
:100B9300C000A8B712017FD000C0E0740614120190
:100BA30078D0E0C000A83912017FD00085393D120A
:100BB30001D3C000A84912017FD000753B1412086D
:100BC300BF1208EA7AFA1204B97AFA1204B9E530C4
:100BD300B40403020B9C120708753900C0E07401CA
:100BE3001412017AD0E0C083C082C0E09000C51225
:100BF300016DD0E0D082D083C0E07401141201787B
:100C0300D0E0C083C082C0E09000D312016DD0E079
:100C1300D082D083753B001208EA120917E530B47D
:070C2300050280F002098ABE
:00000001FF
